{
  "_format": "hh-sol-artifact-1",
  "contractName": "LegitNFT",
  "sourceName": "contracts/LegitNFT.sol",
  "abi": [
    {
      "inputs": [],
      "stateMutability": "nonpayable",
      "type": "constructor"
    },
    {
      "anonymous": false,
      "inputs": [
        {
          "indexed": true,
          "internalType": "address",
          "name": "owner",
          "type": "address"
        },
        {
          "indexed": true,
          "internalType": "address",
          "name": "approved",
          "type": "address"
        },
        {
          "indexed": true,
          "internalType": "uint256",
          "name": "tokenId",
          "type": "uint256"
        }
      ],
      "name": "Approval",
      "type": "event"
    },
    {
      "anonymous": false,
      "inputs": [
        {
          "indexed": true,
          "internalType": "address",
          "name": "owner",
          "type": "address"
        },
        {
          "indexed": true,
          "internalType": "address",
          "name": "operator",
          "type": "address"
        },
        {
          "indexed": false,
          "internalType": "bool",
          "name": "approved",
          "type": "bool"
        }
      ],
      "name": "ApprovalForAll",
      "type": "event"
    },
    {
      "anonymous": false,
      "inputs": [
        {
          "indexed": false,
          "internalType": "address",
          "name": "owner",
          "type": "address"
        },
        {
          "indexed": true,
          "internalType": "uint256",
          "name": "tokenId",
          "type": "uint256"
        },
        {
          "indexed": false,
          "internalType": "address",
          "name": "legitSigAddress",
          "type": "address"
        },
        {
          "indexed": false,
          "internalType": "uint256",
          "name": "legitSigTokenId",
          "type": "uint256"
        },
        {
          "indexed": false,
          "internalType": "string",
          "name": "signedPreviewImageUrl",
          "type": "string"
        },
        {
          "indexed": false,
          "internalType": "string",
          "name": "originalFileUrl",
          "type": "string"
        },
        {
          "indexed": false,
          "internalType": "string",
          "name": "nftAddrAndCID",
          "type": "string"
        }
      ],
      "name": "LegitNFTCreated",
      "type": "event"
    },
    {
      "anonymous": false,
      "inputs": [
        {
          "indexed": true,
          "internalType": "address",
          "name": "from",
          "type": "address"
        },
        {
          "indexed": true,
          "internalType": "address",
          "name": "to",
          "type": "address"
        },
        {
          "indexed": true,
          "internalType": "uint256",
          "name": "tokenId",
          "type": "uint256"
        }
      ],
      "name": "Transfer",
      "type": "event"
    },
    {
      "inputs": [
        {
          "internalType": "address",
          "name": "to",
          "type": "address"
        },
        {
          "internalType": "uint256",
          "name": "tokenId",
          "type": "uint256"
        }
      ],
      "name": "approve",
      "outputs": [],
      "stateMutability": "nonpayable",
      "type": "function"
    },
    {
      "inputs": [
        {
          "internalType": "address",
          "name": "owner",
          "type": "address"
        }
      ],
      "name": "balanceOf",
      "outputs": [
        {
          "internalType": "uint256",
          "name": "",
          "type": "uint256"
        }
      ],
      "stateMutability": "view",
      "type": "function"
    },
    {
      "inputs": [],
      "name": "fetchAll",
      "outputs": [
        {
          "components": [
            {
              "internalType": "address payable",
              "name": "owner",
              "type": "address"
            },
            {
              "internalType": "uint256",
              "name": "tokenId",
              "type": "uint256"
            },
            {
              "internalType": "address",
              "name": "legitSigAddress",
              "type": "address"
            },
            {
              "internalType": "uint256",
              "name": "legitSigTokenId",
              "type": "uint256"
            },
            {
              "internalType": "string",
              "name": "signedPreviewImageUrl",
              "type": "string"
            },
            {
              "internalType": "string",
              "name": "originalFileUrl",
              "type": "string"
            }
          ],
          "internalType": "struct LegitNFT.LegitItem[]",
          "name": "",
          "type": "tuple[]"
        }
      ],
      "stateMutability": "view",
      "type": "function"
    },
    {
      "inputs": [
        {
          "internalType": "uint256",
          "name": "tokenId",
          "type": "uint256"
        }
      ],
      "name": "fetchLegitItem",
      "outputs": [
        {
          "components": [
            {
              "internalType": "address payable",
              "name": "owner",
              "type": "address"
            },
            {
              "internalType": "uint256",
              "name": "tokenId",
              "type": "uint256"
            },
            {
              "internalType": "address",
              "name": "legitSigAddress",
              "type": "address"
            },
            {
              "internalType": "uint256",
              "name": "legitSigTokenId",
              "type": "uint256"
            },
            {
              "internalType": "string",
              "name": "signedPreviewImageUrl",
              "type": "string"
            },
            {
              "internalType": "string",
              "name": "originalFileUrl",
              "type": "string"
            }
          ],
          "internalType": "struct LegitNFT.LegitItem",
          "name": "",
          "type": "tuple"
        }
      ],
      "stateMutability": "view",
      "type": "function"
    },
    {
      "inputs": [
        {
          "internalType": "string",
          "name": "origFileCid",
          "type": "string"
        }
      ],
      "name": "fetchLegitItemByCID",
      "outputs": [
        {
          "components": [
            {
              "internalType": "address payable",
              "name": "owner",
              "type": "address"
            },
            {
              "internalType": "uint256",
              "name": "tokenId",
              "type": "uint256"
            },
            {
              "internalType": "address",
              "name": "legitSigAddress",
              "type": "address"
            },
            {
              "internalType": "uint256",
              "name": "legitSigTokenId",
              "type": "uint256"
            },
            {
              "internalType": "string",
              "name": "signedPreviewImageUrl",
              "type": "string"
            },
            {
              "internalType": "string",
              "name": "originalFileUrl",
              "type": "string"
            }
          ],
          "internalType": "struct LegitNFT.LegitItem",
          "name": "",
          "type": "tuple"
        }
      ],
      "stateMutability": "view",
      "type": "function"
    },
    {
      "inputs": [],
      "name": "fetchMyLegitItems",
      "outputs": [
        {
          "components": [
            {
              "internalType": "address payable",
              "name": "owner",
              "type": "address"
            },
            {
              "internalType": "uint256",
              "name": "tokenId",
              "type": "uint256"
            },
            {
              "internalType": "address",
              "name": "legitSigAddress",
              "type": "address"
            },
            {
              "internalType": "uint256",
              "name": "legitSigTokenId",
              "type": "uint256"
            },
            {
              "internalType": "string",
              "name": "signedPreviewImageUrl",
              "type": "string"
            },
            {
              "internalType": "string",
              "name": "originalFileUrl",
              "type": "string"
            }
          ],
          "internalType": "struct LegitNFT.LegitItem[]",
          "name": "",
          "type": "tuple[]"
        }
      ],
      "stateMutability": "view",
      "type": "function"
    },
    {
      "inputs": [
        {
          "internalType": "uint256",
          "name": "tokenId",
          "type": "uint256"
        }
      ],
      "name": "getApproved",
      "outputs": [
        {
          "internalType": "address",
          "name": "",
          "type": "address"
        }
      ],
      "stateMutability": "view",
      "type": "function"
    },
    {
      "inputs": [],
      "name": "getListingPrice",
      "outputs": [
        {
          "internalType": "uint256",
          "name": "",
          "type": "uint256"
        }
      ],
      "stateMutability": "view",
      "type": "function"
    },
    {
      "inputs": [
        {
          "internalType": "address",
          "name": "_owner",
          "type": "address"
        },
        {
          "internalType": "address",
          "name": "_operator",
          "type": "address"
        }
      ],
      "name": "isApprovedForAll",
      "outputs": [
        {
          "internalType": "bool",
          "name": "isOperator",
          "type": "bool"
        }
      ],
      "stateMutability": "view",
      "type": "function"
    },
    {
      "inputs": [
        {
          "internalType": "string",
          "name": "tokenURI",
          "type": "string"
        },
        {
          "internalType": "string",
          "name": "cid",
          "type": "string"
        },
        {
          "internalType": "address",
          "name": "legitSigAddress",
          "type": "address"
        },
        {
          "internalType": "uint256",
          "name": "legitSigTokenId",
          "type": "uint256"
        },
        {
          "internalType": "string",
          "name": "signedPreviewImageUrl",
          "type": "string"
        },
        {
          "internalType": "string",
          "name": "origFileCid",
          "type": "string"
        },
        {
          "internalType": "string",
          "name": "originalFileUrl",
          "type": "string"
        }
      ],
      "name": "mint",
      "outputs": [
        {
          "internalType": "uint256",
          "name": "",
          "type": "uint256"
        }
      ],
      "stateMutability": "payable",
      "type": "function"
    },
    {
      "inputs": [],
      "name": "name",
      "outputs": [
        {
          "internalType": "string",
          "name": "",
          "type": "string"
        }
      ],
      "stateMutability": "view",
      "type": "function"
    },
    {
      "inputs": [
        {
          "internalType": "uint256",
          "name": "tokenId",
          "type": "uint256"
        }
      ],
      "name": "ownerOf",
      "outputs": [
        {
          "internalType": "address",
          "name": "",
          "type": "address"
        }
      ],
      "stateMutability": "view",
      "type": "function"
    },
    {
      "inputs": [
        {
          "internalType": "address",
          "name": "from",
          "type": "address"
        },
        {
          "internalType": "address",
          "name": "to",
          "type": "address"
        },
        {
          "internalType": "uint256",
          "name": "tokenId",
          "type": "uint256"
        }
      ],
      "name": "safeTransferFrom",
      "outputs": [],
      "stateMutability": "nonpayable",
      "type": "function"
    },
    {
      "inputs": [
        {
          "internalType": "address",
          "name": "from",
          "type": "address"
        },
        {
          "internalType": "address",
          "name": "to",
          "type": "address"
        },
        {
          "internalType": "uint256",
          "name": "tokenId",
          "type": "uint256"
        },
        {
          "internalType": "bytes",
          "name": "_data",
          "type": "bytes"
        }
      ],
      "name": "safeTransferFrom",
      "outputs": [],
      "stateMutability": "nonpayable",
      "type": "function"
    },
    {
      "inputs": [
        {
          "internalType": "address",
          "name": "operator",
          "type": "address"
        },
        {
          "internalType": "bool",
          "name": "approved",
          "type": "bool"
        }
      ],
      "name": "setApprovalForAll",
      "outputs": [],
      "stateMutability": "nonpayable",
      "type": "function"
    },
    {
      "inputs": [
        {
          "internalType": "bytes4",
          "name": "interfaceId",
          "type": "bytes4"
        }
      ],
      "name": "supportsInterface",
      "outputs": [
        {
          "internalType": "bool",
          "name": "",
          "type": "bool"
        }
      ],
      "stateMutability": "view",
      "type": "function"
    },
    {
      "inputs": [],
      "name": "symbol",
      "outputs": [
        {
          "internalType": "string",
          "name": "",
          "type": "string"
        }
      ],
      "stateMutability": "view",
      "type": "function"
    },
    {
      "inputs": [
        {
          "internalType": "uint256",
          "name": "tokenId",
          "type": "uint256"
        }
      ],
      "name": "tokenURI",
      "outputs": [
        {
          "internalType": "string",
          "name": "",
          "type": "string"
        }
      ],
      "stateMutability": "view",
      "type": "function"
    },
    {
      "inputs": [
        {
          "internalType": "address",
          "name": "from",
          "type": "address"
        },
        {
          "internalType": "address",
          "name": "to",
          "type": "address"
        },
        {
          "internalType": "uint256",
          "name": "tokenId",
          "type": "uint256"
        }
      ],
      "name": "transferFrom",
      "outputs": [],
      "stateMutability": "nonpayable",
      "type": "function"
    },
    {
      "inputs": [
        {
          "internalType": "uint256",
          "name": "_listingPrice",
          "type": "uint256"
        }
      ],
      "name": "updateListingPrice",
      "outputs": [],
      "stateMutability": "payable",
      "type": "function"
    }
  ],
  "bytecode": "0x608060405266038d7ea4c68000600855600980546001600160a01b03191673ff7ca10af37178bdd056628ef42fd7f799fac77c1790553480156200004257600080fd5b506040805180820182526008815267131959da5d13919560c21b602080830191825283518085019094526005845264131151d25560da1b9084015281519192916200009091600091620000c1565b508051620000a6906001906020840190620000c1565b5050600a80546001600160a01b0319163317905550620001a4565b828054620000cf9062000167565b90600052602060002090601f016020900481019282620000f357600085556200013e565b82601f106200010e57805160ff19168380011785556200013e565b828001600101855582156200013e579182015b828111156200013e57825182559160200191906001019062000121565b506200014c92915062000150565b5090565b5b808211156200014c576000815560010162000151565b600181811c908216806200017c57607f821691505b602082108114156200019e57634e487b7160e01b600052602260045260246000fd5b50919050565b612ab180620001b46000396000f3fe60806040526004361061011f5760003560e01c806363baa0f8116100a0578063b88d4fde11610064578063b88d4fde14610320578063c5532cd614610340578063c87b56dd14610353578063e985e9c514610373578063e9f1cbcc1461039357600080fd5b806363baa0f81461028b57806370a08231146102b857806395d89b41146102d8578063a22cb465146102ed578063ae677aa31461030d57600080fd5b8063221783c7116100e7578063221783c7146101f457806323b872dd1461021657806327ec486c1461023657806342842e0e1461024b5780636352211e1461026b57600080fd5b806301ffc9a71461012457806306fdde0314610159578063081812fc1461017b578063095ea7b3146101b357806312e85585146101d5575b600080fd5b34801561013057600080fd5b5061014461013f3660046122db565b6103b3565b60405190151581526020015b60405180910390f35b34801561016557600080fd5b5061016e610405565b6040516101509190612636565b34801561018757600080fd5b5061019b610196366004612436565b610497565b6040516001600160a01b039091168152602001610150565b3480156101bf57600080fd5b506101d36101ce3660046122af565b610524565b005b3480156101e157600080fd5b506008545b604051908152602001610150565b34801561020057600080fd5b5061020961063a565b60405161015091906125d4565b34801561022257600080fd5b506101d36102313660046121bb565b61090f565b34801561024257600080fd5b50610209610940565b34801561025757600080fd5b506101d36102663660046121bb565b610bb1565b34801561027757600080fd5b5061019b610286366004612436565b610bcc565b34801561029757600080fd5b506102ab6102a6366004612436565b610c43565b6040516101509190612774565b3480156102c457600080fd5b506101e66102d3366004612148565b610dcb565b3480156102e457600080fd5b5061016e610e52565b3480156102f957600080fd5b506101d361030836600461227c565b610e61565b6101d361031b366004612436565b610e70565b34801561032c57600080fd5b506101d361033b3660046121fc565b610e9f565b6101e661034e36600461234a565b610ed7565b34801561035f57600080fd5b5061016e61036e366004612436565b61121a565b34801561037f57600080fd5b5061014461038e366004612182565b611391565b34801561039f57600080fd5b506102ab6103ae366004612315565b6113e3565b60006001600160e01b031982166380ac58cd60e01b14806103e457506001600160e01b03198216635b5e139f60e01b145b806103ff57506301ffc9a760e01b6001600160e01b03198316145b92915050565b6060600080546104149061298b565b80601f01602080910402602001604051908101604052809291908181526020018280546104409061298b565b801561048d5780601f106104625761010080835404028352916020019161048d565b820191906000526020600020905b81548152906001019060200180831161047057829003601f168201915b5050505050905090565b60006104a28261158d565b6105085760405162461bcd60e51b815260206004820152602c60248201527f4552433732313a20617070726f76656420717565727920666f72206e6f6e657860448201526b34b9ba32b73a103a37b5b2b760a11b60648201526084015b60405180910390fd5b506000908152600460205260409020546001600160a01b031690565b600061052f82610bcc565b9050806001600160a01b0316836001600160a01b0316141561059d5760405162461bcd60e51b815260206004820152602160248201527f4552433732313a20617070726f76616c20746f2063757272656e74206f776e656044820152603960f91b60648201526084016104ff565b336001600160a01b03821614806105b957506105b98133611391565b61062b5760405162461bcd60e51b815260206004820152603860248201527f4552433732313a20617070726f76652063616c6c6572206973206e6f74206f7760448201527f6e6572206e6f7220617070726f76656420666f7220616c6c000000000000000060648201526084016104ff565b61063583836115aa565b505050565b6060600061064760075490565b905060008060005b838110156106a75733600c6000610667846001612787565b81526020810191909152604001600020546001600160a01b0316141561069557610692600184612787565b92505b8061069f816129c6565b91505061064f565b5060008267ffffffffffffffff8111156106c3576106c3612a37565b6040519080825280602002602001820160405280156106fc57816020015b6106e9611fc6565b8152602001906001900390816106e15790505b50905060005b848110156109065733600c600061071a846001612787565b81526020810191909152604001600020546001600160a01b031614156108f4576000610747826001612787565b6000818152600c6020908152604091829020825160c08101845281546001600160a01b039081168252600183015493820193909352600282015490921692820192909252600382015460608201526004820180549394509192909183916080840191906107b39061298b565b80601f01602080910402602001604051908101604052809291908181526020018280546107df9061298b565b801561082c5780601f106108015761010080835404028352916020019161082c565b820191906000526020600020905b81548152906001019060200180831161080f57829003601f168201915b505050505081526020016005820180546108459061298b565b80601f01602080910402602001604051908101604052809291908181526020018280546108719061298b565b80156108be5780601f10610893576101008083540402835291602001916108be565b820191906000526020600020905b8154815290600101906020018083116108a157829003601f168201915b5050505050815250508486815181106108d9576108d9612a21565b60209081029190910101526108ef600186612787565b945050505b806108fe816129c6565b915050610702565b50949350505050565b6109193382611618565b6109355760405162461bcd60e51b81526004016104ff906126c6565b6106358383836116da565b600a546060906001600160a01b0316331461096d5760405162461bcd60e51b81526004016104ff90612717565b600061097860075490565b90506000808267ffffffffffffffff81111561099657610996612a37565b6040519080825280602002602001820160405280156109cf57816020015b6109bc611fc6565b8152602001906001900390816109b45790505b50905060005b83811015610ba95760006109ea826001612787565b6000818152600c6020908152604091829020825160c08101845281546001600160a01b03908116825260018301549382019390935260028201549092169282019290925260038201546060820152600482018054939450919290918391608084019190610a569061298b565b80601f0160208091040260200160405190810160405280929190818152602001828054610a829061298b565b8015610acf5780601f10610aa457610100808354040283529160200191610acf565b820191906000526020600020905b815481529060010190602001808311610ab257829003601f168201915b50505050508152602001600582018054610ae89061298b565b80601f0160208091040260200160405190810160405280929190818152602001828054610b149061298b565b8015610b615780601f10610b3657610100808354040283529160200191610b61565b820191906000526020600020905b815481529060010190602001808311610b4457829003601f168201915b505050505081525050848681518110610b7c57610b7c612a21565b6020908102919091010152610b92600186612787565b945050508080610ba1906129c6565b9150506109d5565b509392505050565b61063583838360405180602001604052806000815250610e9f565b6000818152600260205260408120546001600160a01b0316806103ff5760405162461bcd60e51b815260206004820152602960248201527f4552433732313a206f776e657220717565727920666f72206e6f6e657869737460448201526832b73a103a37b5b2b760b91b60648201526084016104ff565b610c4b611fc6565b6000828152600c6020908152604091829020825160c08101845281546001600160a01b0390811682526001830154938201939093526002820154909216928201929092526003820154606082015260048201805483916080840191610caf9061298b565b80601f0160208091040260200160405190810160405280929190818152602001828054610cdb9061298b565b8015610d285780601f10610cfd57610100808354040283529160200191610d28565b820191906000526020600020905b815481529060010190602001808311610d0b57829003601f168201915b50505050508152602001600582018054610d419061298b565b80601f0160208091040260200160405190810160405280929190818152602001828054610d6d9061298b565b8015610dba5780601f10610d8f57610100808354040283529160200191610dba565b820191906000526020600020905b815481529060010190602001808311610d9d57829003601f168201915b505050505081525050915050919050565b60006001600160a01b038216610e365760405162461bcd60e51b815260206004820152602a60248201527f4552433732313a2062616c616e636520717565727920666f7220746865207a65604482015269726f206164647265737360b01b60648201526084016104ff565b506001600160a01b031660009081526003602052604090205490565b6060600180546104149061298b565b610e6c338383611876565b5050565b600a546001600160a01b03163314610e9a5760405162461bcd60e51b81526004016104ff90612717565b600855565b610ea93383611618565b610ec55760405162461bcd60e51b81526004016104ff906126c6565b610ed184848484611945565b50505050565b600e80546001600160a01b0319166001600160a01b038716908117909155604051638700a1b360e01b8152600481018690526000918291638700a1b390602401602060405180830381600087803b158015610f3157600080fd5b505af1158015610f45573d6000803e3d6000fd5b505050506040513d601f19601f82011682018060405250810190610f699190612165565b90506001600160a01b0381163314610fdf5760405162461bcd60e51b815260206004820152603360248201527f4f776e6572206f66204c656769745369676e617475726520646f6573206e6f746044820152721036b0ba31b4103a3432903a37b5b2b724b21760691b60648201526084016104ff565b610fed600780546001019055565b6000610ff860075490565b905080600b8a60405161100b91906124e6565b90815260200160405180910390208190555080600d8660405161102e91906124e6565b908152604051908190036020019020556110483382611978565b611052818b611aab565b6040805160c08101825233815260208082018481526001600160a01b038c8116848601908152606085018d8152608086018d815260a087018c90526000898152600c875297909720865181549085166001600160a01b03199182161782559451600182015591516002830180549190941694169390931790915590516003820155925180519293926110ea926004850192019061200e565b5060a0820151805161110691600584019160209091019061200e565b50905050600061116360405180604001604052806002815260200161060f60f31b81525061115e61115861113930611b36565b604051806040016040528060018152602001601760f91b815250611c7d565b89611c7d565b611c7d565b600e54604051630c3d517d60e41b81529192506001600160a01b03169063c3d517d0906111989084908c908c90600401612649565b600060405180830381600087803b1580156111b257600080fd5b505af11580156111c6573d6000803e3d6000fd5b50505050817f251083a178aa178c2dde54bb26e52cbba4d0d5ba87aed060a1bcf957fdfddd78338b8b8b8a876040516112049695949392919061256e565b60405180910390a2509998505050505050505050565b60606112258261158d565b61128b5760405162461bcd60e51b815260206004820152603160248201527f45524337323155524953746f726167653a2055524920717565727920666f72206044820152703737b732bc34b9ba32b73a103a37b5b2b760791b60648201526084016104ff565b600082815260066020526040812080546112a49061298b565b80601f01602080910402602001604051908101604052809291908181526020018280546112d09061298b565b801561131d5780601f106112f25761010080835404028352916020019161131d565b820191906000526020600020905b81548152906001019060200180831161130057829003601f168201915b50505050509050600061133b60408051602081019091526000815290565b905080516000141561134e575092915050565b815115611380578082604051602001611368929190612502565b60405160208183030381529060405292505050919050565b61138984611ca9565b949350505050565b6009546000906001600160a01b03838116911614156113b2575060016103ff565b6001600160a01b0380841660009081526005602090815260408083209386168352929052205460ff165b9392505050565b6113eb611fc6565b6000600d836040516113fd91906124e6565b9081526040805160209281900383018120546000818152600c855283902060c08301845280546001600160a01b039081168452600182015495840195909552600281015490941692820192909252600383015460608201526004830180549294509091839160808401916114709061298b565b80601f016020809104026020016040519081016040528092919081815260200182805461149c9061298b565b80156114e95780601f106114be576101008083540402835291602001916114e9565b820191906000526020600020905b8154815290600101906020018083116114cc57829003601f168201915b505050505081526020016005820180546115029061298b565b80601f016020809104026020016040519081016040528092919081815260200182805461152e9061298b565b801561157b5780601f106115505761010080835404028352916020019161157b565b820191906000526020600020905b81548152906001019060200180831161155e57829003601f168201915b50505050508152505092505050919050565b6000908152600260205260409020546001600160a01b0316151590565b600081815260046020526040902080546001600160a01b0319166001600160a01b03841690811790915581906115df82610bcc565b6001600160a01b03167f8c5be1e5ebec7d5bd14f71427d1e84f3dd0314c0f7b2291e5b200ac8c7c3b92560405160405180910390a45050565b60006116238261158d565b6116845760405162461bcd60e51b815260206004820152602c60248201527f4552433732313a206f70657261746f7220717565727920666f72206e6f6e657860448201526b34b9ba32b73a103a37b5b2b760a11b60648201526084016104ff565b600061168f83610bcc565b9050806001600160a01b0316846001600160a01b031614806116ca5750836001600160a01b03166116bf84610497565b6001600160a01b0316145b8061138957506113898185611391565b826001600160a01b03166116ed82610bcc565b6001600160a01b0316146117515760405162461bcd60e51b815260206004820152602560248201527f4552433732313a207472616e736665722066726f6d20696e636f72726563742060448201526437bbb732b960d91b60648201526084016104ff565b6001600160a01b0382166117b35760405162461bcd60e51b8152602060048201526024808201527f4552433732313a207472616e7366657220746f20746865207a65726f206164646044820152637265737360e01b60648201526084016104ff565b6117be6000826115aa565b6001600160a01b03831660009081526003602052604081208054600192906117e7908490612925565b90915550506001600160a01b0382166000908152600360205260408120805460019290611815908490612787565b909155505060008181526002602052604080822080546001600160a01b0319166001600160a01b0386811691821790925591518493918716917fddf252ad1be2c89b69c2b068fc378daa952ba7f163c4a11628f55a4df523b3ef91a4505050565b816001600160a01b0316836001600160a01b031614156118d85760405162461bcd60e51b815260206004820152601960248201527f4552433732313a20617070726f766520746f2063616c6c65720000000000000060448201526064016104ff565b6001600160a01b03838116600081815260056020908152604080832094871680845294825291829020805460ff191686151590811790915591519182527f17307eab39ab6107e8899845ad3d59bd9653f200f220920489ca2b5937696c31910160405180910390a3505050565b6119508484846116da565b61195c84848484611d80565b610ed15760405162461bcd60e51b81526004016104ff90612674565b6001600160a01b0382166119ce5760405162461bcd60e51b815260206004820181905260248201527f4552433732313a206d696e7420746f20746865207a65726f206164647265737360448201526064016104ff565b6119d78161158d565b15611a245760405162461bcd60e51b815260206004820152601c60248201527f4552433732313a20746f6b656e20616c7265616479206d696e7465640000000060448201526064016104ff565b6001600160a01b0382166000908152600360205260408120805460019290611a4d908490612787565b909155505060008181526002602052604080822080546001600160a01b0319166001600160a01b03861690811790915590518392907fddf252ad1be2c89b69c2b068fc378daa952ba7f163c4a11628f55a4df523b3ef908290a45050565b611ab48261158d565b611b175760405162461bcd60e51b815260206004820152602e60248201527f45524337323155524953746f726167653a2055524920736574206f66206e6f6e60448201526d32bc34b9ba32b73a103a37b5b2b760911b60648201526084016104ff565b600082815260066020908152604090912082516106359284019061200e565b60408051602880825260608281019093526000919060208201818036833701905050905060005b6014811015611c76576000611b73826013612925565b611b7e9060086128e5565b611b8990600261283d565b611b9c906001600160a01b0387166127c4565b60f81b9050600060108260f81c611bb391906127d8565b60f81b905060008160f81c6010611bca9190612904565b8360f81c611bd8919061293c565b60f81b9050611be682611e8d565b85611bf28660026128e5565b81518110611c0257611c02612a21565b60200101906001600160f81b031916908160001a905350611c2281611e8d565b85611c2e8660026128e5565b611c39906001612787565b81518110611c4957611c49612a21565b60200101906001600160f81b031916908160001a9053505050508080611c6e906129c6565b915050611b5d565b5092915050565b60608282604051602001611c92929190612502565b604051602081830303815290604052905092915050565b6060611cb48261158d565b611d185760405162461bcd60e51b815260206004820152602f60248201527f4552433732314d657461646174613a2055524920717565727920666f72206e6f60448201526e3732bc34b9ba32b73a103a37b5b2b760891b60648201526084016104ff565b6000611d2f60408051602081019091526000815290565b90506000815111611d4f57604051806020016040528060008152506113dc565b80611d5984611ec8565b604051602001611d6a929190612502565b6040516020818303038152906040529392505050565b60006001600160a01b0384163b15611e8257604051630a85bd0160e11b81526001600160a01b0385169063150b7a0290611dc4903390899088908890600401612531565b602060405180830381600087803b158015611dde57600080fd5b505af1925050508015611e0e575060408051601f3d908101601f19168201909252611e0b918101906122f8565b60015b611e68573d808015611e3c576040519150601f19603f3d011682016040523d82523d6000602084013e611e41565b606091505b508051611e605760405162461bcd60e51b81526004016104ff90612674565b805181602001fd5b6001600160e01b031916630a85bd0160e11b149050611389565b506001949350505050565b6000600a60f883901c1015611eb457611eab60f883901c603061279f565b60f81b92915050565b611eab60f883901c605761279f565b919050565b606081611eec5750506040805180820190915260018152600360fc1b602082015290565b8160005b8115611f165780611f00816129c6565b9150611f0f9050600a836127c4565b9150611ef0565b60008167ffffffffffffffff811115611f3157611f31612a37565b6040519080825280601f01601f191660200182016040528015611f5b576020820181803683370190505b5090505b841561138957611f70600183612925565b9150611f7d600a866129e1565b611f88906030612787565b60f81b818381518110611f9d57611f9d612a21565b60200101906001600160f81b031916908160001a905350611fbf600a866127c4565b9450611f5f565b6040518060c0016040528060006001600160a01b031681526020016000815260200160006001600160a01b031681526020016000815260200160608152602001606081525090565b82805461201a9061298b565b90600052602060002090601f01602090048101928261203c5760008555612082565b82601f1061205557805160ff1916838001178555612082565b82800160010185558215612082579182015b82811115612082578251825591602001919060010190612067565b5061208e929150612092565b5090565b5b8082111561208e5760008155600101612093565b600067ffffffffffffffff808411156120c2576120c2612a37565b604051601f8501601f19908116603f011681019082821181831017156120ea576120ea612a37565b8160405280935085815286868601111561210357600080fd5b858560208301376000602087830101525050509392505050565b8035611ec381612a4d565b600082601f83011261213957600080fd5b6113dc838335602085016120a7565b60006020828403121561215a57600080fd5b81356113dc81612a4d565b60006020828403121561217757600080fd5b81516113dc81612a4d565b6000806040838503121561219557600080fd5b82356121a081612a4d565b915060208301356121b081612a4d565b809150509250929050565b6000806000606084860312156121d057600080fd5b83356121db81612a4d565b925060208401356121eb81612a4d565b929592945050506040919091013590565b6000806000806080858703121561221257600080fd5b843561221d81612a4d565b9350602085013561222d81612a4d565b925060408501359150606085013567ffffffffffffffff81111561225057600080fd5b8501601f8101871361226157600080fd5b612270878235602084016120a7565b91505092959194509250565b6000806040838503121561228f57600080fd5b823561229a81612a4d565b9150602083013580151581146121b057600080fd5b600080604083850312156122c257600080fd5b82356122cd81612a4d565b946020939093013593505050565b6000602082840312156122ed57600080fd5b81356113dc81612a65565b60006020828403121561230a57600080fd5b81516113dc81612a65565b60006020828403121561232757600080fd5b813567ffffffffffffffff81111561233e57600080fd5b61138984828501612128565b600080600080600080600060e0888a03121561236557600080fd5b873567ffffffffffffffff8082111561237d57600080fd5b6123898b838c01612128565b985060208a013591508082111561239f57600080fd5b6123ab8b838c01612128565b97506123b960408b0161211d565b965060608a0135955060808a01359150808211156123d657600080fd5b6123e28b838c01612128565b945060a08a01359150808211156123f857600080fd5b6124048b838c01612128565b935060c08a013591508082111561241a57600080fd5b506124278a828b01612128565b91505092959891949750929550565b60006020828403121561244857600080fd5b5035919050565b6000815180845261246781602086016020860161295f565b601f01601f19169290920160200192915050565b600060018060a01b03808351168452602083015160208501528060408401511660408501525060608201516060840152608082015160c060808501526124c460c085018261244f565b905060a083015184820360a08601526124dd828261244f565b95945050505050565b600082516124f881846020870161295f565b9190910192915050565b6000835161251481846020880161295f565b83519083019061252881836020880161295f565b01949350505050565b6001600160a01b03858116825284166020820152604081018390526080606082018190526000906125649083018461244f565b9695505050505050565b6001600160a01b038781168252861660208201526040810185905260c0606082018190526000906125a19083018661244f565b82810360808401526125b3818661244f565b905082810360a08401526125c7818561244f565b9998505050505050505050565b6000602080830181845280855180835260408601915060408160051b870101925083870160005b8281101561262957603f1988860301845261261785835161247b565b945092850192908501906001016125fb565b5092979650505050505050565b6020815260006113dc602083018461244f565b60608152600061265c606083018661244f565b8460208401528281036040840152612564818561244f565b60208082526032908201527f4552433732313a207472616e7366657220746f206e6f6e20455243373231526560408201527131b2b4bb32b91034b6b83632b6b2b73a32b960711b606082015260800190565b60208082526031908201527f4552433732313a207472616e736665722063616c6c6572206973206e6f74206f6040820152701ddb995c881b9bdc88185c1c1c9bdd9959607a1b606082015260800190565b6020808252603c908201527f4f6e6c792074686520636f6e7472616374206f776e657220284c65676974696d60408201527f697a65292063616e2063616c6c20746869732066756e6374696f6e2e00000000606082015260800190565b6020815260006113dc602083018461247b565b6000821982111561279a5761279a6129f5565b500190565b600060ff821660ff84168060ff038211156127bc576127bc6129f5565b019392505050565b6000826127d3576127d3612a0b565b500490565b600060ff8316806127eb576127eb612a0b565b8060ff84160491505092915050565b600181815b8085111561283557816000190482111561281b5761281b6129f5565b8085161561282857918102915b93841c93908002906127ff565b509250929050565b60006113dc8383600082612853575060016103ff565b81612860575060006103ff565b816001811461287657600281146128805761289c565b60019150506103ff565b60ff841115612891576128916129f5565b50506001821b6103ff565b5060208310610133831016604e8410600b84101617156128bf575081810a6103ff565b6128c983836127fa565b80600019048211156128dd576128dd6129f5565b029392505050565b60008160001904831182151516156128ff576128ff6129f5565b500290565b600060ff821660ff84168160ff04811182151516156128dd576128dd6129f5565b600082821015612937576129376129f5565b500390565b600060ff821660ff841680821015612956576129566129f5565b90039392505050565b60005b8381101561297a578181015183820152602001612962565b83811115610ed15750506000910152565b600181811c9082168061299f57607f821691505b602082108114156129c057634e487b7160e01b600052602260045260246000fd5b50919050565b60006000198214156129da576129da6129f5565b5060010190565b6000826129f0576129f0612a0b565b500690565b634e487b7160e01b600052601160045260246000fd5b634e487b7160e01b600052601260045260246000fd5b634e487b7160e01b600052603260045260246000fd5b634e487b7160e01b600052604160045260246000fd5b6001600160a01b0381168114612a6257600080fd5b50565b6001600160e01b031981168114612a6257600080fdfea2646970667358221220fa29edad1dce3a02199ab1d63f19f07a664ed0efda4380de40aa7b317f7d25b664736f6c63430008070033",
  "linkReferences": {},
  "deployedLinkReferences": {}
}