{
  "_format": "hh-sol-artifact-1",
  "contractName": "LegitNFT",
  "sourceName": "contracts/LegitNFT.sol",
  "abi": [
    {
      "inputs": [],
      "stateMutability": "nonpayable",
      "type": "constructor"
    },
    {
      "anonymous": false,
      "inputs": [
        {
          "indexed": true,
          "internalType": "address",
          "name": "owner",
          "type": "address"
        },
        {
          "indexed": true,
          "internalType": "address",
          "name": "approved",
          "type": "address"
        },
        {
          "indexed": true,
          "internalType": "uint256",
          "name": "tokenId",
          "type": "uint256"
        }
      ],
      "name": "Approval",
      "type": "event"
    },
    {
      "anonymous": false,
      "inputs": [
        {
          "indexed": true,
          "internalType": "address",
          "name": "owner",
          "type": "address"
        },
        {
          "indexed": true,
          "internalType": "address",
          "name": "operator",
          "type": "address"
        },
        {
          "indexed": false,
          "internalType": "bool",
          "name": "approved",
          "type": "bool"
        }
      ],
      "name": "ApprovalForAll",
      "type": "event"
    },
    {
      "anonymous": false,
      "inputs": [
        {
          "indexed": false,
          "internalType": "address",
          "name": "owner",
          "type": "address"
        },
        {
          "indexed": true,
          "internalType": "uint256",
          "name": "tokenId",
          "type": "uint256"
        },
        {
          "indexed": false,
          "internalType": "address",
          "name": "legitSigAddress",
          "type": "address"
        },
        {
          "indexed": false,
          "internalType": "uint256",
          "name": "legitSigTokenId",
          "type": "uint256"
        },
        {
          "indexed": false,
          "internalType": "string",
          "name": "signedPreviewImageUrl",
          "type": "string"
        },
        {
          "indexed": false,
          "internalType": "string",
          "name": "originalFileUrl",
          "type": "string"
        },
        {
          "indexed": false,
          "internalType": "string",
          "name": "nftAddrAndCID",
          "type": "string"
        }
      ],
      "name": "LegitNFTCreated",
      "type": "event"
    },
    {
      "anonymous": false,
      "inputs": [
        {
          "indexed": true,
          "internalType": "address",
          "name": "from",
          "type": "address"
        },
        {
          "indexed": true,
          "internalType": "address",
          "name": "to",
          "type": "address"
        },
        {
          "indexed": true,
          "internalType": "uint256",
          "name": "tokenId",
          "type": "uint256"
        }
      ],
      "name": "Transfer",
      "type": "event"
    },
    {
      "inputs": [
        {
          "internalType": "address",
          "name": "to",
          "type": "address"
        },
        {
          "internalType": "uint256",
          "name": "tokenId",
          "type": "uint256"
        }
      ],
      "name": "approve",
      "outputs": [],
      "stateMutability": "nonpayable",
      "type": "function"
    },
    {
      "inputs": [
        {
          "internalType": "address",
          "name": "owner",
          "type": "address"
        }
      ],
      "name": "balanceOf",
      "outputs": [
        {
          "internalType": "uint256",
          "name": "",
          "type": "uint256"
        }
      ],
      "stateMutability": "view",
      "type": "function"
    },
    {
      "inputs": [],
      "name": "contractURI",
      "outputs": [
        {
          "internalType": "string",
          "name": "",
          "type": "string"
        }
      ],
      "stateMutability": "view",
      "type": "function"
    },
    {
      "inputs": [],
      "name": "fetchAll",
      "outputs": [
        {
          "components": [
            {
              "internalType": "address payable",
              "name": "owner",
              "type": "address"
            },
            {
              "internalType": "uint256",
              "name": "tokenId",
              "type": "uint256"
            },
            {
              "internalType": "address",
              "name": "legitSigAddress",
              "type": "address"
            },
            {
              "internalType": "uint256",
              "name": "legitSigTokenId",
              "type": "uint256"
            },
            {
              "internalType": "string",
              "name": "signedPreviewImageUrl",
              "type": "string"
            },
            {
              "internalType": "string",
              "name": "originalFileUrl",
              "type": "string"
            }
          ],
          "internalType": "struct LegitNFT.LegitItem[]",
          "name": "",
          "type": "tuple[]"
        }
      ],
      "stateMutability": "view",
      "type": "function"
    },
    {
      "inputs": [
        {
          "internalType": "uint256",
          "name": "tokenId",
          "type": "uint256"
        }
      ],
      "name": "fetchLegitItem",
      "outputs": [
        {
          "components": [
            {
              "internalType": "address payable",
              "name": "owner",
              "type": "address"
            },
            {
              "internalType": "uint256",
              "name": "tokenId",
              "type": "uint256"
            },
            {
              "internalType": "address",
              "name": "legitSigAddress",
              "type": "address"
            },
            {
              "internalType": "uint256",
              "name": "legitSigTokenId",
              "type": "uint256"
            },
            {
              "internalType": "string",
              "name": "signedPreviewImageUrl",
              "type": "string"
            },
            {
              "internalType": "string",
              "name": "originalFileUrl",
              "type": "string"
            }
          ],
          "internalType": "struct LegitNFT.LegitItem",
          "name": "",
          "type": "tuple"
        }
      ],
      "stateMutability": "view",
      "type": "function"
    },
    {
      "inputs": [
        {
          "internalType": "string",
          "name": "origFileCid",
          "type": "string"
        }
      ],
      "name": "fetchLegitItemByCID",
      "outputs": [
        {
          "components": [
            {
              "internalType": "address payable",
              "name": "owner",
              "type": "address"
            },
            {
              "internalType": "uint256",
              "name": "tokenId",
              "type": "uint256"
            },
            {
              "internalType": "address",
              "name": "legitSigAddress",
              "type": "address"
            },
            {
              "internalType": "uint256",
              "name": "legitSigTokenId",
              "type": "uint256"
            },
            {
              "internalType": "string",
              "name": "signedPreviewImageUrl",
              "type": "string"
            },
            {
              "internalType": "string",
              "name": "originalFileUrl",
              "type": "string"
            }
          ],
          "internalType": "struct LegitNFT.LegitItem",
          "name": "",
          "type": "tuple"
        }
      ],
      "stateMutability": "view",
      "type": "function"
    },
    {
      "inputs": [],
      "name": "fetchMyLegitItems",
      "outputs": [
        {
          "components": [
            {
              "internalType": "address payable",
              "name": "owner",
              "type": "address"
            },
            {
              "internalType": "uint256",
              "name": "tokenId",
              "type": "uint256"
            },
            {
              "internalType": "address",
              "name": "legitSigAddress",
              "type": "address"
            },
            {
              "internalType": "uint256",
              "name": "legitSigTokenId",
              "type": "uint256"
            },
            {
              "internalType": "string",
              "name": "signedPreviewImageUrl",
              "type": "string"
            },
            {
              "internalType": "string",
              "name": "originalFileUrl",
              "type": "string"
            }
          ],
          "internalType": "struct LegitNFT.LegitItem[]",
          "name": "",
          "type": "tuple[]"
        }
      ],
      "stateMutability": "view",
      "type": "function"
    },
    {
      "inputs": [
        {
          "internalType": "uint256",
          "name": "tokenId",
          "type": "uint256"
        }
      ],
      "name": "getApproved",
      "outputs": [
        {
          "internalType": "address",
          "name": "",
          "type": "address"
        }
      ],
      "stateMutability": "view",
      "type": "function"
    },
    {
      "inputs": [],
      "name": "getListingPrice",
      "outputs": [
        {
          "internalType": "uint256",
          "name": "",
          "type": "uint256"
        }
      ],
      "stateMutability": "view",
      "type": "function"
    },
    {
      "inputs": [
        {
          "internalType": "address",
          "name": "_owner",
          "type": "address"
        },
        {
          "internalType": "address",
          "name": "_operator",
          "type": "address"
        }
      ],
      "name": "isApprovedForAll",
      "outputs": [
        {
          "internalType": "bool",
          "name": "isOperator",
          "type": "bool"
        }
      ],
      "stateMutability": "view",
      "type": "function"
    },
    {
      "inputs": [
        {
          "internalType": "string",
          "name": "tokenURI",
          "type": "string"
        },
        {
          "internalType": "string",
          "name": "cid",
          "type": "string"
        },
        {
          "internalType": "address",
          "name": "legitSigAddress",
          "type": "address"
        },
        {
          "internalType": "uint256",
          "name": "legitSigTokenId",
          "type": "uint256"
        },
        {
          "internalType": "string",
          "name": "signedPreviewImageUrl",
          "type": "string"
        },
        {
          "internalType": "string",
          "name": "origFileCid",
          "type": "string"
        },
        {
          "internalType": "string",
          "name": "originalFileUrl",
          "type": "string"
        }
      ],
      "name": "mint",
      "outputs": [
        {
          "internalType": "uint256",
          "name": "",
          "type": "uint256"
        }
      ],
      "stateMutability": "payable",
      "type": "function"
    },
    {
      "inputs": [],
      "name": "name",
      "outputs": [
        {
          "internalType": "string",
          "name": "",
          "type": "string"
        }
      ],
      "stateMutability": "view",
      "type": "function"
    },
    {
      "inputs": [
        {
          "internalType": "uint256",
          "name": "tokenId",
          "type": "uint256"
        }
      ],
      "name": "ownerOf",
      "outputs": [
        {
          "internalType": "address",
          "name": "",
          "type": "address"
        }
      ],
      "stateMutability": "view",
      "type": "function"
    },
    {
      "inputs": [
        {
          "internalType": "address",
          "name": "from",
          "type": "address"
        },
        {
          "internalType": "address",
          "name": "to",
          "type": "address"
        },
        {
          "internalType": "uint256",
          "name": "tokenId",
          "type": "uint256"
        }
      ],
      "name": "safeTransferFrom",
      "outputs": [],
      "stateMutability": "nonpayable",
      "type": "function"
    },
    {
      "inputs": [
        {
          "internalType": "address",
          "name": "from",
          "type": "address"
        },
        {
          "internalType": "address",
          "name": "to",
          "type": "address"
        },
        {
          "internalType": "uint256",
          "name": "tokenId",
          "type": "uint256"
        },
        {
          "internalType": "bytes",
          "name": "_data",
          "type": "bytes"
        }
      ],
      "name": "safeTransferFrom",
      "outputs": [],
      "stateMutability": "nonpayable",
      "type": "function"
    },
    {
      "inputs": [
        {
          "internalType": "address",
          "name": "operator",
          "type": "address"
        },
        {
          "internalType": "bool",
          "name": "approved",
          "type": "bool"
        }
      ],
      "name": "setApprovalForAll",
      "outputs": [],
      "stateMutability": "nonpayable",
      "type": "function"
    },
    {
      "inputs": [
        {
          "internalType": "bytes4",
          "name": "interfaceId",
          "type": "bytes4"
        }
      ],
      "name": "supportsInterface",
      "outputs": [
        {
          "internalType": "bool",
          "name": "",
          "type": "bool"
        }
      ],
      "stateMutability": "view",
      "type": "function"
    },
    {
      "inputs": [],
      "name": "symbol",
      "outputs": [
        {
          "internalType": "string",
          "name": "",
          "type": "string"
        }
      ],
      "stateMutability": "view",
      "type": "function"
    },
    {
      "inputs": [
        {
          "internalType": "uint256",
          "name": "tokenId",
          "type": "uint256"
        }
      ],
      "name": "tokenURI",
      "outputs": [
        {
          "internalType": "string",
          "name": "",
          "type": "string"
        }
      ],
      "stateMutability": "view",
      "type": "function"
    },
    {
      "inputs": [
        {
          "internalType": "address",
          "name": "from",
          "type": "address"
        },
        {
          "internalType": "address",
          "name": "to",
          "type": "address"
        },
        {
          "internalType": "uint256",
          "name": "tokenId",
          "type": "uint256"
        }
      ],
      "name": "transferFrom",
      "outputs": [],
      "stateMutability": "nonpayable",
      "type": "function"
    },
    {
      "inputs": [
        {
          "internalType": "uint256",
          "name": "_listingPrice",
          "type": "uint256"
        }
      ],
      "name": "updateListingPrice",
      "outputs": [],
      "stateMutability": "payable",
      "type": "function"
    }
  ],
  "bytecode": "0x608060405266038d7ea4c68000600855600980546001600160a01b03191673ff7ca10af37178bdd056628ef42fd7f799fac77c1790553480156200004257600080fd5b506040805180820182526008815267131959da5d13919560c21b602080830191825283518085019094526005845264131151d25560da1b9084015281519192916200009091600091620000c1565b508051620000a6906001906020840190620000c1565b5050600a80546001600160a01b0319163317905550620001a4565b828054620000cf9062000167565b90600052602060002090601f016020900481019282620000f357600085556200013e565b82601f106200010e57805160ff19168380011785556200013e565b828001600101855582156200013e579182015b828111156200013e57825182559160200191906001019062000121565b506200014c92915062000150565b5090565b5b808211156200014c576000815560010162000151565b600181811c908216806200017c57607f821691505b602082108114156200019e57634e487b7160e01b600052602260045260246000fd5b50919050565b612b6680620001b46000396000f3fe60806040526004361061012a5760003560e01c806363baa0f8116100ab578063b88d4fde1161006f578063b88d4fde1461032b578063c5532cd61461034b578063c87b56dd1461035e578063e8a3d4851461037e578063e985e9c514610393578063e9f1cbcc146103b357600080fd5b806363baa0f81461029657806370a08231146102c357806395d89b41146102e3578063a22cb465146102f8578063ae677aa31461031857600080fd5b8063221783c7116100f2578063221783c7146101ff57806323b872dd1461022157806327ec486c1461024157806342842e0e146102565780636352211e1461027657600080fd5b806301ffc9a71461012f57806306fdde0314610164578063081812fc14610186578063095ea7b3146101be57806312e85585146101e0575b600080fd5b34801561013b57600080fd5b5061014f61014a36600461231b565b6103d3565b60405190151581526020015b60405180910390f35b34801561017057600080fd5b50610179610425565b60405161015b9190612676565b34801561019257600080fd5b506101a66101a1366004612476565b6104b7565b6040516001600160a01b03909116815260200161015b565b3480156101ca57600080fd5b506101de6101d93660046122ef565b610544565b005b3480156101ec57600080fd5b506008545b60405190815260200161015b565b34801561020b57600080fd5b5061021461065a565b60405161015b9190612614565b34801561022d57600080fd5b506101de61023c3660046121fb565b61092f565b34801561024d57600080fd5b50610214610960565b34801561026257600080fd5b506101de6102713660046121fb565b610bd1565b34801561028257600080fd5b506101a6610291366004612476565b610bec565b3480156102a257600080fd5b506102b66102b1366004612476565b610c63565b60405161015b91906127b4565b3480156102cf57600080fd5b506101f16102de366004612188565b610deb565b3480156102ef57600080fd5b50610179610e72565b34801561030457600080fd5b506101de6103133660046122bc565b610e81565b6101de610326366004612476565b610e90565b34801561033757600080fd5b506101de61034636600461223c565b610ebf565b6101f161035936600461238a565b610ef7565b34801561036a57600080fd5b50610179610379366004612476565b61123a565b34801561038a57600080fd5b506101796113b1565b34801561039f57600080fd5b5061014f6103ae3660046121c2565b6113d1565b3480156103bf57600080fd5b506102b66103ce366004612355565b611423565b60006001600160e01b031982166380ac58cd60e01b148061040457506001600160e01b03198216635b5e139f60e01b145b8061041f57506301ffc9a760e01b6001600160e01b03198316145b92915050565b606060008054610434906129cb565b80601f0160208091040260200160405190810160405280929190818152602001828054610460906129cb565b80156104ad5780601f10610482576101008083540402835291602001916104ad565b820191906000526020600020905b81548152906001019060200180831161049057829003601f168201915b5050505050905090565b60006104c2826115cd565b6105285760405162461bcd60e51b815260206004820152602c60248201527f4552433732313a20617070726f76656420717565727920666f72206e6f6e657860448201526b34b9ba32b73a103a37b5b2b760a11b60648201526084015b60405180910390fd5b506000908152600460205260409020546001600160a01b031690565b600061054f82610bec565b9050806001600160a01b0316836001600160a01b031614156105bd5760405162461bcd60e51b815260206004820152602160248201527f4552433732313a20617070726f76616c20746f2063757272656e74206f776e656044820152603960f91b606482015260840161051f565b336001600160a01b03821614806105d957506105d981336113d1565b61064b5760405162461bcd60e51b815260206004820152603860248201527f4552433732313a20617070726f76652063616c6c6572206973206e6f74206f7760448201527f6e6572206e6f7220617070726f76656420666f7220616c6c0000000000000000606482015260840161051f565b61065583836115ea565b505050565b6060600061066760075490565b905060008060005b838110156106c75733600c60006106878460016127c7565b81526020810191909152604001600020546001600160a01b031614156106b5576106b26001846127c7565b92505b806106bf81612a06565b91505061066f565b5060008267ffffffffffffffff8111156106e3576106e3612a77565b60405190808252806020026020018201604052801561071c57816020015b610709612006565b8152602001906001900390816107015790505b50905060005b848110156109265733600c600061073a8460016127c7565b81526020810191909152604001600020546001600160a01b031614156109145760006107678260016127c7565b6000818152600c6020908152604091829020825160c08101845281546001600160a01b039081168252600183015493820193909352600282015490921692820192909252600382015460608201526004820180549394509192909183916080840191906107d3906129cb565b80601f01602080910402602001604051908101604052809291908181526020018280546107ff906129cb565b801561084c5780601f106108215761010080835404028352916020019161084c565b820191906000526020600020905b81548152906001019060200180831161082f57829003601f168201915b50505050508152602001600582018054610865906129cb565b80601f0160208091040260200160405190810160405280929190818152602001828054610891906129cb565b80156108de5780601f106108b3576101008083540402835291602001916108de565b820191906000526020600020905b8154815290600101906020018083116108c157829003601f168201915b5050505050815250508486815181106108f9576108f9612a61565b602090810291909101015261090f6001866127c7565b945050505b8061091e81612a06565b915050610722565b50949350505050565b6109393382611658565b6109555760405162461bcd60e51b815260040161051f90612706565b61065583838361171a565b600a546060906001600160a01b0316331461098d5760405162461bcd60e51b815260040161051f90612757565b600061099860075490565b90506000808267ffffffffffffffff8111156109b6576109b6612a77565b6040519080825280602002602001820160405280156109ef57816020015b6109dc612006565b8152602001906001900390816109d45790505b50905060005b83811015610bc9576000610a0a8260016127c7565b6000818152600c6020908152604091829020825160c08101845281546001600160a01b03908116825260018301549382019390935260028201549092169282019290925260038201546060820152600482018054939450919290918391608084019190610a76906129cb565b80601f0160208091040260200160405190810160405280929190818152602001828054610aa2906129cb565b8015610aef5780601f10610ac457610100808354040283529160200191610aef565b820191906000526020600020905b815481529060010190602001808311610ad257829003601f168201915b50505050508152602001600582018054610b08906129cb565b80601f0160208091040260200160405190810160405280929190818152602001828054610b34906129cb565b8015610b815780601f10610b5657610100808354040283529160200191610b81565b820191906000526020600020905b815481529060010190602001808311610b6457829003601f168201915b505050505081525050848681518110610b9c57610b9c612a61565b6020908102919091010152610bb26001866127c7565b945050508080610bc190612a06565b9150506109f5565b509392505050565b61065583838360405180602001604052806000815250610ebf565b6000818152600260205260408120546001600160a01b03168061041f5760405162461bcd60e51b815260206004820152602960248201527f4552433732313a206f776e657220717565727920666f72206e6f6e657869737460448201526832b73a103a37b5b2b760b91b606482015260840161051f565b610c6b612006565b6000828152600c6020908152604091829020825160c08101845281546001600160a01b0390811682526001830154938201939093526002820154909216928201929092526003820154606082015260048201805483916080840191610ccf906129cb565b80601f0160208091040260200160405190810160405280929190818152602001828054610cfb906129cb565b8015610d485780601f10610d1d57610100808354040283529160200191610d48565b820191906000526020600020905b815481529060010190602001808311610d2b57829003601f168201915b50505050508152602001600582018054610d61906129cb565b80601f0160208091040260200160405190810160405280929190818152602001828054610d8d906129cb565b8015610dda5780601f10610daf57610100808354040283529160200191610dda565b820191906000526020600020905b815481529060010190602001808311610dbd57829003601f168201915b505050505081525050915050919050565b60006001600160a01b038216610e565760405162461bcd60e51b815260206004820152602a60248201527f4552433732313a2062616c616e636520717565727920666f7220746865207a65604482015269726f206164647265737360b01b606482015260840161051f565b506001600160a01b031660009081526003602052604090205490565b606060018054610434906129cb565b610e8c3383836118b6565b5050565b600a546001600160a01b03163314610eba5760405162461bcd60e51b815260040161051f90612757565b600855565b610ec93383611658565b610ee55760405162461bcd60e51b815260040161051f90612706565b610ef184848484611985565b50505050565b600e80546001600160a01b0319166001600160a01b038716908117909155604051638700a1b360e01b8152600481018690526000918291638700a1b390602401602060405180830381600087803b158015610f5157600080fd5b505af1158015610f65573d6000803e3d6000fd5b505050506040513d601f19601f82011682018060405250810190610f8991906121a5565b90506001600160a01b0381163314610fff5760405162461bcd60e51b815260206004820152603360248201527f4f776e6572206f66204c656769745369676e617475726520646f6573206e6f746044820152721036b0ba31b4103a3432903a37b5b2b724b21760691b606482015260840161051f565b61100d600780546001019055565b600061101860075490565b905080600b8a60405161102b9190612526565b90815260200160405180910390208190555080600d8660405161104e9190612526565b9081526040519081900360200190205561106833826119b8565b611072818b611aeb565b6040805160c08101825233815260208082018481526001600160a01b038c8116848601908152606085018d8152608086018d815260a087018c90526000898152600c875297909720865181549085166001600160a01b031991821617825594516001820155915160028301805491909416941693909317909155905160038201559251805192939261110a926004850192019061204e565b5060a0820151805161112691600584019160209091019061204e565b50905050600061118360405180604001604052806002815260200161060f60f31b81525061117e61117861115930611b76565b604051806040016040528060018152602001601760f91b815250611cbd565b89611cbd565b611cbd565b600e54604051630c3d517d60e41b81529192506001600160a01b03169063c3d517d0906111b89084908c908c90600401612689565b600060405180830381600087803b1580156111d257600080fd5b505af11580156111e6573d6000803e3d6000fd5b50505050817f251083a178aa178c2dde54bb26e52cbba4d0d5ba87aed060a1bcf957fdfddd78338b8b8b8a87604051611224969594939291906125ae565b60405180910390a2509998505050505050505050565b6060611245826115cd565b6112ab5760405162461bcd60e51b815260206004820152603160248201527f45524337323155524953746f726167653a2055524920717565727920666f72206044820152703737b732bc34b9ba32b73a103a37b5b2b760791b606482015260840161051f565b600082815260066020526040812080546112c4906129cb565b80601f01602080910402602001604051908101604052809291908181526020018280546112f0906129cb565b801561133d5780601f106113125761010080835404028352916020019161133d565b820191906000526020600020905b81548152906001019060200180831161132057829003601f168201915b50505050509050600061135b60408051602081019091526000815290565b905080516000141561136e575092915050565b8151156113a0578082604051602001611388929190612542565b60405160208183030381529060405292505050919050565b6113a984611ce9565b949350505050565b60606040518060a0016040528060758152602001612abc60759139905090565b6009546000906001600160a01b03838116911614156113f25750600161041f565b6001600160a01b0380841660009081526005602090815260408083209386168352929052205460ff165b9392505050565b61142b612006565b6000600d8360405161143d9190612526565b9081526040805160209281900383018120546000818152600c855283902060c08301845280546001600160a01b039081168452600182015495840195909552600281015490941692820192909252600383015460608201526004830180549294509091839160808401916114b0906129cb565b80601f01602080910402602001604051908101604052809291908181526020018280546114dc906129cb565b80156115295780601f106114fe57610100808354040283529160200191611529565b820191906000526020600020905b81548152906001019060200180831161150c57829003601f168201915b50505050508152602001600582018054611542906129cb565b80601f016020809104026020016040519081016040528092919081815260200182805461156e906129cb565b80156115bb5780601f10611590576101008083540402835291602001916115bb565b820191906000526020600020905b81548152906001019060200180831161159e57829003601f168201915b50505050508152505092505050919050565b6000908152600260205260409020546001600160a01b0316151590565b600081815260046020526040902080546001600160a01b0319166001600160a01b038416908117909155819061161f82610bec565b6001600160a01b03167f8c5be1e5ebec7d5bd14f71427d1e84f3dd0314c0f7b2291e5b200ac8c7c3b92560405160405180910390a45050565b6000611663826115cd565b6116c45760405162461bcd60e51b815260206004820152602c60248201527f4552433732313a206f70657261746f7220717565727920666f72206e6f6e657860448201526b34b9ba32b73a103a37b5b2b760a11b606482015260840161051f565b60006116cf83610bec565b9050806001600160a01b0316846001600160a01b0316148061170a5750836001600160a01b03166116ff846104b7565b6001600160a01b0316145b806113a957506113a981856113d1565b826001600160a01b031661172d82610bec565b6001600160a01b0316146117915760405162461bcd60e51b815260206004820152602560248201527f4552433732313a207472616e736665722066726f6d20696e636f72726563742060448201526437bbb732b960d91b606482015260840161051f565b6001600160a01b0382166117f35760405162461bcd60e51b8152602060048201526024808201527f4552433732313a207472616e7366657220746f20746865207a65726f206164646044820152637265737360e01b606482015260840161051f565b6117fe6000826115ea565b6001600160a01b0383166000908152600360205260408120805460019290611827908490612965565b90915550506001600160a01b03821660009081526003602052604081208054600192906118559084906127c7565b909155505060008181526002602052604080822080546001600160a01b0319166001600160a01b0386811691821790925591518493918716917fddf252ad1be2c89b69c2b068fc378daa952ba7f163c4a11628f55a4df523b3ef91a4505050565b816001600160a01b0316836001600160a01b031614156119185760405162461bcd60e51b815260206004820152601960248201527f4552433732313a20617070726f766520746f2063616c6c657200000000000000604482015260640161051f565b6001600160a01b03838116600081815260056020908152604080832094871680845294825291829020805460ff191686151590811790915591519182527f17307eab39ab6107e8899845ad3d59bd9653f200f220920489ca2b5937696c31910160405180910390a3505050565b61199084848461171a565b61199c84848484611dc0565b610ef15760405162461bcd60e51b815260040161051f906126b4565b6001600160a01b038216611a0e5760405162461bcd60e51b815260206004820181905260248201527f4552433732313a206d696e7420746f20746865207a65726f2061646472657373604482015260640161051f565b611a17816115cd565b15611a645760405162461bcd60e51b815260206004820152601c60248201527f4552433732313a20746f6b656e20616c7265616479206d696e74656400000000604482015260640161051f565b6001600160a01b0382166000908152600360205260408120805460019290611a8d9084906127c7565b909155505060008181526002602052604080822080546001600160a01b0319166001600160a01b03861690811790915590518392907fddf252ad1be2c89b69c2b068fc378daa952ba7f163c4a11628f55a4df523b3ef908290a45050565b611af4826115cd565b611b575760405162461bcd60e51b815260206004820152602e60248201527f45524337323155524953746f726167653a2055524920736574206f66206e6f6e60448201526d32bc34b9ba32b73a103a37b5b2b760911b606482015260840161051f565b600082815260066020908152604090912082516106559284019061204e565b60408051602880825260608281019093526000919060208201818036833701905050905060005b6014811015611cb6576000611bb3826013612965565b611bbe906008612925565b611bc990600261287d565b611bdc906001600160a01b038716612804565b60f81b9050600060108260f81c611bf39190612818565b60f81b905060008160f81c6010611c0a9190612944565b8360f81c611c18919061297c565b60f81b9050611c2682611ecd565b85611c32866002612925565b81518110611c4257611c42612a61565b60200101906001600160f81b031916908160001a905350611c6281611ecd565b85611c6e866002612925565b611c799060016127c7565b81518110611c8957611c89612a61565b60200101906001600160f81b031916908160001a9053505050508080611cae90612a06565b915050611b9d565b5092915050565b60608282604051602001611cd2929190612542565b604051602081830303815290604052905092915050565b6060611cf4826115cd565b611d585760405162461bcd60e51b815260206004820152602f60248201527f4552433732314d657461646174613a2055524920717565727920666f72206e6f60448201526e3732bc34b9ba32b73a103a37b5b2b760891b606482015260840161051f565b6000611d6f60408051602081019091526000815290565b90506000815111611d8f576040518060200160405280600081525061141c565b80611d9984611f08565b604051602001611daa929190612542565b6040516020818303038152906040529392505050565b60006001600160a01b0384163b15611ec257604051630a85bd0160e11b81526001600160a01b0385169063150b7a0290611e04903390899088908890600401612571565b602060405180830381600087803b158015611e1e57600080fd5b505af1925050508015611e4e575060408051601f3d908101601f19168201909252611e4b91810190612338565b60015b611ea8573d808015611e7c576040519150601f19603f3d011682016040523d82523d6000602084013e611e81565b606091505b508051611ea05760405162461bcd60e51b815260040161051f906126b4565b805181602001fd5b6001600160e01b031916630a85bd0160e11b1490506113a9565b506001949350505050565b6000600a60f883901c1015611ef457611eeb60f883901c60306127df565b60f81b92915050565b611eeb60f883901c60576127df565b919050565b606081611f2c5750506040805180820190915260018152600360fc1b602082015290565b8160005b8115611f565780611f4081612a06565b9150611f4f9050600a83612804565b9150611f30565b60008167ffffffffffffffff811115611f7157611f71612a77565b6040519080825280601f01601f191660200182016040528015611f9b576020820181803683370190505b5090505b84156113a957611fb0600183612965565b9150611fbd600a86612a21565b611fc89060306127c7565b60f81b818381518110611fdd57611fdd612a61565b60200101906001600160f81b031916908160001a905350611fff600a86612804565b9450611f9f565b6040518060c0016040528060006001600160a01b031681526020016000815260200160006001600160a01b031681526020016000815260200160608152602001606081525090565b82805461205a906129cb565b90600052602060002090601f01602090048101928261207c57600085556120c2565b82601f1061209557805160ff19168380011785556120c2565b828001600101855582156120c2579182015b828111156120c25782518255916020019190600101906120a7565b506120ce9291506120d2565b5090565b5b808211156120ce57600081556001016120d3565b600067ffffffffffffffff8084111561210257612102612a77565b604051601f8501601f19908116603f0116810190828211818310171561212a5761212a612a77565b8160405280935085815286868601111561214357600080fd5b858560208301376000602087830101525050509392505050565b8035611f0381612a8d565b600082601f83011261217957600080fd5b61141c838335602085016120e7565b60006020828403121561219a57600080fd5b813561141c81612a8d565b6000602082840312156121b757600080fd5b815161141c81612a8d565b600080604083850312156121d557600080fd5b82356121e081612a8d565b915060208301356121f081612a8d565b809150509250929050565b60008060006060848603121561221057600080fd5b833561221b81612a8d565b9250602084013561222b81612a8d565b929592945050506040919091013590565b6000806000806080858703121561225257600080fd5b843561225d81612a8d565b9350602085013561226d81612a8d565b925060408501359150606085013567ffffffffffffffff81111561229057600080fd5b8501601f810187136122a157600080fd5b6122b0878235602084016120e7565b91505092959194509250565b600080604083850312156122cf57600080fd5b82356122da81612a8d565b9150602083013580151581146121f057600080fd5b6000806040838503121561230257600080fd5b823561230d81612a8d565b946020939093013593505050565b60006020828403121561232d57600080fd5b813561141c81612aa5565b60006020828403121561234a57600080fd5b815161141c81612aa5565b60006020828403121561236757600080fd5b813567ffffffffffffffff81111561237e57600080fd5b6113a984828501612168565b600080600080600080600060e0888a0312156123a557600080fd5b873567ffffffffffffffff808211156123bd57600080fd5b6123c98b838c01612168565b985060208a01359150808211156123df57600080fd5b6123eb8b838c01612168565b97506123f960408b0161215d565b965060608a0135955060808a013591508082111561241657600080fd5b6124228b838c01612168565b945060a08a013591508082111561243857600080fd5b6124448b838c01612168565b935060c08a013591508082111561245a57600080fd5b506124678a828b01612168565b91505092959891949750929550565b60006020828403121561248857600080fd5b5035919050565b600081518084526124a781602086016020860161299f565b601f01601f19169290920160200192915050565b600060018060a01b03808351168452602083015160208501528060408401511660408501525060608201516060840152608082015160c0608085015261250460c085018261248f565b905060a083015184820360a086015261251d828261248f565b95945050505050565b6000825161253881846020870161299f565b9190910192915050565b6000835161255481846020880161299f565b83519083019061256881836020880161299f565b01949350505050565b6001600160a01b03858116825284166020820152604081018390526080606082018190526000906125a49083018461248f565b9695505050505050565b6001600160a01b038781168252861660208201526040810185905260c0606082018190526000906125e19083018661248f565b82810360808401526125f3818661248f565b905082810360a0840152612607818561248f565b9998505050505050505050565b6000602080830181845280855180835260408601915060408160051b870101925083870160005b8281101561266957603f198886030184526126578583516124bb565b9450928501929085019060010161263b565b5092979650505050505050565b60208152600061141c602083018461248f565b60608152600061269c606083018661248f565b84602084015282810360408401526125a4818561248f565b60208082526032908201527f4552433732313a207472616e7366657220746f206e6f6e20455243373231526560408201527131b2b4bb32b91034b6b83632b6b2b73a32b960711b606082015260800190565b60208082526031908201527f4552433732313a207472616e736665722063616c6c6572206973206e6f74206f6040820152701ddb995c881b9bdc88185c1c1c9bdd9959607a1b606082015260800190565b6020808252603c908201527f4f6e6c792074686520636f6e7472616374206f776e657220284c65676974696d60408201527f697a65292063616e2063616c6c20746869732066756e6374696f6e2e00000000606082015260800190565b60208152600061141c60208301846124bb565b600082198211156127da576127da612a35565b500190565b600060ff821660ff84168060ff038211156127fc576127fc612a35565b019392505050565b60008261281357612813612a4b565b500490565b600060ff83168061282b5761282b612a4b565b8060ff84160491505092915050565b600181815b8085111561287557816000190482111561285b5761285b612a35565b8085161561286857918102915b93841c939080029061283f565b509250929050565b600061141c83836000826128935750600161041f565b816128a05750600061041f565b81600181146128b657600281146128c0576128dc565b600191505061041f565b60ff8411156128d1576128d1612a35565b50506001821b61041f565b5060208310610133831016604e8410600b84101617156128ff575081810a61041f565b612909838361283a565b806000190482111561291d5761291d612a35565b029392505050565b600081600019048311821515161561293f5761293f612a35565b500290565b600060ff821660ff84168160ff048111821515161561291d5761291d612a35565b60008282101561297757612977612a35565b500390565b600060ff821660ff84168082101561299657612996612a35565b90039392505050565b60005b838110156129ba5781810151838201526020016129a2565b83811115610ef15750506000910152565b600181811c908216806129df57607f821691505b60208210811415612a0057634e487b7160e01b600052602260045260246000fd5b50919050565b6000600019821415612a1a57612a1a612a35565b5060010190565b600082612a3057612a30612a4b565b500690565b634e487b7160e01b600052601160045260246000fd5b634e487b7160e01b600052601260045260246000fd5b634e487b7160e01b600052603260045260246000fd5b634e487b7160e01b600052604160045260246000fd5b6001600160a01b0381168114612aa257600080fd5b50565b6001600160e01b031981168114612aa257600080fdfe68747470733a2f2f6c65676974696d697a652e6d7970696e6174612e636c6f75642f697066732f516d5833387171704e67705638367a7131473769437347356b346f7569756e3353616e65594d7136444b417863592f4f70656e536561436f6c6c656374696f6e2d4c656769744e46542e6a736f6ea2646970667358221220ebb2b9858bd4c4a2b1886221031962c8172447b5eff710c9c8cf69bd461df5f764736f6c63430008070033",
  "linkReferences": {},
  "deployedLinkReferences": {}
}