{
  "_format": "hh-sol-artifact-1",
  "contractName": "LegitSignature",
  "sourceName": "contracts/LegitSignature.sol",
  "abi": [
    {
      "inputs": [],
      "stateMutability": "nonpayable",
      "type": "constructor"
    },
    {
      "anonymous": false,
      "inputs": [
        {
          "indexed": true,
          "internalType": "address",
          "name": "owner",
          "type": "address"
        },
        {
          "indexed": true,
          "internalType": "address",
          "name": "approved",
          "type": "address"
        },
        {
          "indexed": true,
          "internalType": "uint256",
          "name": "tokenId",
          "type": "uint256"
        }
      ],
      "name": "Approval",
      "type": "event"
    },
    {
      "anonymous": false,
      "inputs": [
        {
          "indexed": true,
          "internalType": "address",
          "name": "owner",
          "type": "address"
        },
        {
          "indexed": true,
          "internalType": "address",
          "name": "operator",
          "type": "address"
        },
        {
          "indexed": false,
          "internalType": "bool",
          "name": "approved",
          "type": "bool"
        }
      ],
      "name": "ApprovalForAll",
      "type": "event"
    },
    {
      "anonymous": false,
      "inputs": [
        {
          "indexed": true,
          "internalType": "uint256",
          "name": "tokenId",
          "type": "uint256"
        },
        {
          "indexed": false,
          "internalType": "address",
          "name": "creator",
          "type": "address"
        },
        {
          "indexed": false,
          "internalType": "string",
          "name": "creatorName",
          "type": "string"
        },
        {
          "indexed": false,
          "internalType": "address",
          "name": "owner",
          "type": "address"
        },
        {
          "indexed": false,
          "internalType": "string",
          "name": "socialAuthJson",
          "type": "string"
        }
      ],
      "name": "SignatureCreated",
      "type": "event"
    },
    {
      "anonymous": false,
      "inputs": [
        {
          "indexed": true,
          "internalType": "address",
          "name": "from",
          "type": "address"
        },
        {
          "indexed": true,
          "internalType": "address",
          "name": "to",
          "type": "address"
        },
        {
          "indexed": true,
          "internalType": "uint256",
          "name": "tokenId",
          "type": "uint256"
        }
      ],
      "name": "Transfer",
      "type": "event"
    },
    {
      "inputs": [
        {
          "internalType": "address",
          "name": "to",
          "type": "address"
        },
        {
          "internalType": "uint256",
          "name": "tokenId",
          "type": "uint256"
        }
      ],
      "name": "approve",
      "outputs": [],
      "stateMutability": "nonpayable",
      "type": "function"
    },
    {
      "inputs": [
        {
          "internalType": "address",
          "name": "owner",
          "type": "address"
        }
      ],
      "name": "balanceOf",
      "outputs": [
        {
          "internalType": "uint256",
          "name": "",
          "type": "uint256"
        }
      ],
      "stateMutability": "view",
      "type": "function"
    },
    {
      "inputs": [
        {
          "internalType": "string",
          "name": "nftAddrAndCID",
          "type": "string"
        },
        {
          "internalType": "uint256",
          "name": "tokenId",
          "type": "uint256"
        },
        {
          "internalType": "string",
          "name": "signedPreviewImageUrl",
          "type": "string"
        }
      ],
      "name": "contractLinkNFT",
      "outputs": [
        {
          "internalType": "uint256",
          "name": "",
          "type": "uint256"
        }
      ],
      "stateMutability": "nonpayable",
      "type": "function"
    },
    {
      "inputs": [
        {
          "internalType": "string",
          "name": "tokenURI",
          "type": "string"
        },
        {
          "internalType": "string",
          "name": "creatorName",
          "type": "string"
        },
        {
          "internalType": "string",
          "name": "socialAuthJson",
          "type": "string"
        }
      ],
      "name": "createToken",
      "outputs": [
        {
          "internalType": "uint256",
          "name": "",
          "type": "uint256"
        }
      ],
      "stateMutability": "payable",
      "type": "function"
    },
    {
      "inputs": [],
      "name": "fetchMySignatures",
      "outputs": [
        {
          "components": [
            {
              "internalType": "uint256",
              "name": "tokenId",
              "type": "uint256"
            },
            {
              "internalType": "address",
              "name": "creator",
              "type": "address"
            },
            {
              "internalType": "string",
              "name": "creatorName",
              "type": "string"
            },
            {
              "internalType": "address payable",
              "name": "owner",
              "type": "address"
            },
            {
              "internalType": "string",
              "name": "socialAuthJson",
              "type": "string"
            }
          ],
          "internalType": "struct LegitSignature.SignatureItem[]",
          "name": "",
          "type": "tuple[]"
        }
      ],
      "stateMutability": "view",
      "type": "function"
    },
    {
      "inputs": [],
      "name": "fetchSignatureItems",
      "outputs": [
        {
          "components": [
            {
              "internalType": "uint256",
              "name": "tokenId",
              "type": "uint256"
            },
            {
              "internalType": "address",
              "name": "creator",
              "type": "address"
            },
            {
              "internalType": "string",
              "name": "creatorName",
              "type": "string"
            },
            {
              "internalType": "address payable",
              "name": "owner",
              "type": "address"
            },
            {
              "internalType": "string",
              "name": "socialAuthJson",
              "type": "string"
            }
          ],
          "internalType": "struct LegitSignature.SignatureItem[]",
          "name": "",
          "type": "tuple[]"
        }
      ],
      "stateMutability": "view",
      "type": "function"
    },
    {
      "inputs": [
        {
          "internalType": "uint256",
          "name": "tokenId",
          "type": "uint256"
        }
      ],
      "name": "getApproved",
      "outputs": [
        {
          "internalType": "address",
          "name": "",
          "type": "address"
        }
      ],
      "stateMutability": "view",
      "type": "function"
    },
    {
      "inputs": [],
      "name": "getListingPrice",
      "outputs": [
        {
          "internalType": "uint256",
          "name": "",
          "type": "uint256"
        }
      ],
      "stateMutability": "view",
      "type": "function"
    },
    {
      "inputs": [
        {
          "internalType": "string",
          "name": "nftAddrAndCID",
          "type": "string"
        }
      ],
      "name": "getNFTSignature",
      "outputs": [
        {
          "components": [
            {
              "internalType": "uint256",
              "name": "tokenId",
              "type": "uint256"
            },
            {
              "internalType": "address",
              "name": "creator",
              "type": "address"
            },
            {
              "internalType": "string",
              "name": "creatorName",
              "type": "string"
            },
            {
              "internalType": "address payable",
              "name": "owner",
              "type": "address"
            },
            {
              "internalType": "string",
              "name": "socialAuthJson",
              "type": "string"
            }
          ],
          "internalType": "struct LegitSignature.SignatureItem",
          "name": "",
          "type": "tuple"
        }
      ],
      "stateMutability": "view",
      "type": "function"
    },
    {
      "inputs": [
        {
          "internalType": "uint256",
          "name": "tokenId",
          "type": "uint256"
        }
      ],
      "name": "getSigOwner",
      "outputs": [
        {
          "internalType": "address",
          "name": "",
          "type": "address"
        }
      ],
      "stateMutability": "view",
      "type": "function"
    },
    {
      "inputs": [
        {
          "internalType": "uint256",
          "name": "tokenId",
          "type": "uint256"
        }
      ],
      "name": "getTokenCreator",
      "outputs": [
        {
          "internalType": "address",
          "name": "",
          "type": "address"
        }
      ],
      "stateMutability": "view",
      "type": "function"
    },
    {
      "inputs": [
        {
          "internalType": "address",
          "name": "owner",
          "type": "address"
        },
        {
          "internalType": "address",
          "name": "operator",
          "type": "address"
        }
      ],
      "name": "isApprovedForAll",
      "outputs": [
        {
          "internalType": "bool",
          "name": "",
          "type": "bool"
        }
      ],
      "stateMutability": "view",
      "type": "function"
    },
    {
      "inputs": [
        {
          "internalType": "string",
          "name": "nftAddrAndCID",
          "type": "string"
        },
        {
          "internalType": "uint256",
          "name": "tokenId",
          "type": "uint256"
        }
      ],
      "name": "linkNFT",
      "outputs": [
        {
          "internalType": "uint256",
          "name": "",
          "type": "uint256"
        }
      ],
      "stateMutability": "nonpayable",
      "type": "function"
    },
    {
      "inputs": [],
      "name": "name",
      "outputs": [
        {
          "internalType": "string",
          "name": "",
          "type": "string"
        }
      ],
      "stateMutability": "view",
      "type": "function"
    },
    {
      "inputs": [
        {
          "internalType": "uint256",
          "name": "tokenId",
          "type": "uint256"
        }
      ],
      "name": "ownerOf",
      "outputs": [
        {
          "internalType": "address",
          "name": "",
          "type": "address"
        }
      ],
      "stateMutability": "view",
      "type": "function"
    },
    {
      "inputs": [
        {
          "internalType": "address",
          "name": "from",
          "type": "address"
        },
        {
          "internalType": "address",
          "name": "to",
          "type": "address"
        },
        {
          "internalType": "uint256",
          "name": "tokenId",
          "type": "uint256"
        }
      ],
      "name": "safeTransferFrom",
      "outputs": [],
      "stateMutability": "nonpayable",
      "type": "function"
    },
    {
      "inputs": [
        {
          "internalType": "address",
          "name": "from",
          "type": "address"
        },
        {
          "internalType": "address",
          "name": "to",
          "type": "address"
        },
        {
          "internalType": "uint256",
          "name": "tokenId",
          "type": "uint256"
        },
        {
          "internalType": "bytes",
          "name": "_data",
          "type": "bytes"
        }
      ],
      "name": "safeTransferFrom",
      "outputs": [],
      "stateMutability": "nonpayable",
      "type": "function"
    },
    {
      "inputs": [
        {
          "internalType": "address",
          "name": "operator",
          "type": "address"
        },
        {
          "internalType": "bool",
          "name": "approved",
          "type": "bool"
        }
      ],
      "name": "setApprovalForAll",
      "outputs": [],
      "stateMutability": "nonpayable",
      "type": "function"
    },
    {
      "inputs": [
        {
          "internalType": "address",
          "name": "_legitNFTAddr",
          "type": "address"
        }
      ],
      "name": "setLegitNFTAddr",
      "outputs": [],
      "stateMutability": "payable",
      "type": "function"
    },
    {
      "inputs": [
        {
          "internalType": "bytes4",
          "name": "interfaceId",
          "type": "bytes4"
        }
      ],
      "name": "supportsInterface",
      "outputs": [
        {
          "internalType": "bool",
          "name": "",
          "type": "bool"
        }
      ],
      "stateMutability": "view",
      "type": "function"
    },
    {
      "inputs": [],
      "name": "symbol",
      "outputs": [
        {
          "internalType": "string",
          "name": "",
          "type": "string"
        }
      ],
      "stateMutability": "view",
      "type": "function"
    },
    {
      "inputs": [
        {
          "internalType": "uint256",
          "name": "tokenId",
          "type": "uint256"
        }
      ],
      "name": "tokenURI",
      "outputs": [
        {
          "internalType": "string",
          "name": "",
          "type": "string"
        }
      ],
      "stateMutability": "view",
      "type": "function"
    },
    {
      "inputs": [
        {
          "internalType": "address",
          "name": "from",
          "type": "address"
        },
        {
          "internalType": "address",
          "name": "to",
          "type": "address"
        },
        {
          "internalType": "uint256",
          "name": "tokenId",
          "type": "uint256"
        }
      ],
      "name": "transferFrom",
      "outputs": [],
      "stateMutability": "nonpayable",
      "type": "function"
    },
    {
      "inputs": [
        {
          "internalType": "uint256",
          "name": "_listingPrice",
          "type": "uint256"
        }
      ],
      "name": "updateListingPrice",
      "outputs": [],
      "stateMutability": "payable",
      "type": "function"
    }
  ],
  "bytecode": "0x608060405266038d7ea4c680006008553480156200001c57600080fd5b50604080518082018252600f81526e4c65676974205369676e617475726560881b6020808301918252835180850190945260048452634c53494760e01b9084015281519192916200007091600091620000a1565b50805162000086906001906020840190620000a1565b5050600980546001600160a01b031916331790555062000184565b828054620000af9062000147565b90600052602060002090601f016020900481019282620000d357600085556200011e565b82601f10620000ee57805160ff19168380011785556200011e565b828001600101855582156200011e579182015b828111156200011e57825182559160200191906001019062000101565b506200012c92915062000130565b5090565b5b808211156200012c576000815560010162000131565b600181811c908216806200015c57607f821691505b602082108114156200017e57634e487b7160e01b600052602260045260246000fd5b50919050565b61261380620001946000396000f3fe60806040526004361061014b5760003560e01c80638700a1b3116100b6578063b88d4fde1161006f578063b88d4fde146103b7578063c21d9edb146103d7578063c3d517d014610404578063c87b56dd14610424578063db542e5514610444578063e985e9c51461046457600080fd5b80638700a1b3146102ea578063934689a91461032357806394aed7d01461035c57806395d89b411461036f578063a22cb46514610384578063ae677aa3146103a457600080fd5b8063418f86e011610108578063418f86e01461024057806342842e0e146102625780636352211e146102825780636a365b5a146102a257806370a08231146102b75780637549befb146102d757600080fd5b806301ffc9a71461015057806306fdde0314610185578063081812fc146101a7578063095ea7b3146101df57806312e855851461020157806323b872dd14610220575b600080fd5b34801561015c57600080fd5b5061017061016b366004612000565b6104ad565b60405190151581526020015b60405180910390f35b34801561019157600080fd5b5061019a6104ff565b60405161017c919061236d565b3480156101b357600080fd5b506101c76101c2366004612192565b610591565b6040516001600160a01b03909116815260200161017c565b3480156101eb57600080fd5b506101ff6101fa366004611fd6565b61061e565b005b34801561020d57600080fd5b506008545b60405190815260200161017c565b34801561022c57600080fd5b506101ff61023b366004611ee2565b610734565b34801561024c57600080fd5b50610255610765565b60405161017c919061230b565b34801561026e57600080fd5b506101ff61027d366004611ee2565b6109d1565b34801561028e57600080fd5b506101c761029d366004612192565b6109ec565b3480156102ae57600080fd5b50610255610a63565b3480156102c357600080fd5b506102126102d2366004611e94565b610d39565b6101ff6102e5366004611e94565b610dc0565b3480156102f657600080fd5b506101c7610305366004612192565b6000908152600b60205260409020600301546001600160a01b031690565b34801561032f57600080fd5b506101c761033e366004612192565b6000908152600b60205260409020600101546001600160a01b031690565b61021261036a36600461206f565b610e0c565b34801561037b57600080fd5b5061019a610f3f565b34801561039057600080fd5b506101ff61039f366004611f9a565b610f4e565b6101ff6103b2366004612192565b610f5d565b3480156103c357600080fd5b506101ff6103d2366004611f1e565b610f8c565b3480156103e357600080fd5b506103f76103f236600461203a565b610fc4565b60405161017c9190612480565b34801561041057600080fd5b5061021261041f36600461213c565b611169565b34801561043057600080fd5b5061019a61043f366004612192565b611237565b34801561045057600080fd5b5061021261045f3660046120f7565b6113ae565b34801561047057600080fd5b5061017061047f366004611eaf565b6001600160a01b03918216600090815260056020908152604080832093909416825291909152205460ff1690565b60006001600160e01b031982166380ac58cd60e01b14806104de57506001600160e01b03198216635b5e139f60e01b145b806104f957506301ffc9a760e01b6001600160e01b03198316145b92915050565b60606000805461050e90612502565b80601f016020809104026020016040519081016040528092919081815260200182805461053a90612502565b80156105875780601f1061055c57610100808354040283529160200191610587565b820191906000526020600020905b81548152906001019060200180831161056a57829003601f168201915b5050505050905090565b600061059c82611458565b6106025760405162461bcd60e51b815260206004820152602c60248201527f4552433732313a20617070726f76656420717565727920666f72206e6f6e657860448201526b34b9ba32b73a103a37b5b2b760a11b60648201526084015b60405180910390fd5b506000908152600460205260409020546001600160a01b031690565b6000610629826109ec565b9050806001600160a01b0316836001600160a01b031614156106975760405162461bcd60e51b815260206004820152602160248201527f4552433732313a20617070726f76616c20746f2063757272656e74206f776e656044820152603960f91b60648201526084016105f9565b336001600160a01b03821614806106b357506106b3813361047f565b6107255760405162461bcd60e51b815260206004820152603860248201527f4552433732313a20617070726f76652063616c6c6572206973206e6f74206f7760448201527f6e6572206e6f7220617070726f76656420666f7220616c6c000000000000000060648201526084016105f9565b61072f8383611475565b505050565b61073e33826114e3565b61075a5760405162461bcd60e51b81526004016105f9906123d2565b61072f8383836115c9565b6009546060906001600160a01b031633146107925760405162461bcd60e51b81526004016105f990612423565b600061079d60075490565b90506000808267ffffffffffffffff8111156107bb576107bb6125ae565b6040519080825280602002602001820160405280156107f457816020015b6107e1611d08565b8152602001906001900390816107d95790505b50905060005b838110156109c957600061080f826001612493565b6000818152600b6020908152604091829020825160a0810184528154815260018201546001600160a01b031692810192909252600281018054949550909391928492908401919061085f90612502565b80601f016020809104026020016040519081016040528092919081815260200182805461088b90612502565b80156108d85780601f106108ad576101008083540402835291602001916108d8565b820191906000526020600020905b8154815290600101906020018083116108bb57829003601f168201915b505050918352505060038201546001600160a01b0316602082015260048201805460409092019161090890612502565b80601f016020809104026020016040519081016040528092919081815260200182805461093490612502565b80156109815780601f1061095657610100808354040283529160200191610981565b820191906000526020600020905b81548152906001019060200180831161096457829003601f168201915b50505050508152505084868151811061099c5761099c612598565b60209081029190910101526109b2600186612493565b9450505080806109c19061253d565b9150506107fa565b509392505050565b61072f83838360405180602001604052806000815250610f8c565b6000818152600260205260408120546001600160a01b0316806104f95760405162461bcd60e51b815260206004820152602960248201527f4552433732313a206f776e657220717565727920666f72206e6f6e657869737460448201526832b73a103a37b5b2b760b91b60648201526084016105f9565b60606000610a7060075490565b905060008060005b83811015610ad35733600b6000610a90846001612493565b81526020810191909152604001600020600301546001600160a01b03161415610ac157610abe600184612493565b92505b80610acb8161253d565b915050610a78565b5060008267ffffffffffffffff811115610aef57610aef6125ae565b604051908082528060200260200182016040528015610b2857816020015b610b15611d08565b815260200190600190039081610b0d5790505b50905060005b84811015610d305733600b6000610b46846001612493565b81526020810191909152604001600020600301546001600160a01b03161415610d1e576000610b76826001612493565b6000818152600b6020908152604091829020825160a0810184528154815260018201546001600160a01b0316928101929092526002810180549495509093919284929084019190610bc690612502565b80601f0160208091040260200160405190810160405280929190818152602001828054610bf290612502565b8015610c3f5780601f10610c1457610100808354040283529160200191610c3f565b820191906000526020600020905b815481529060010190602001808311610c2257829003601f168201915b505050918352505060038201546001600160a01b03166020820152600482018054604090920191610c6f90612502565b80601f0160208091040260200160405190810160405280929190818152602001828054610c9b90612502565b8015610ce85780601f10610cbd57610100808354040283529160200191610ce8565b820191906000526020600020905b815481529060010190602001808311610ccb57829003601f168201915b505050505081525050848681518110610d0357610d03612598565b6020908102919091010152610d19600186612493565b945050505b80610d288161253d565b915050610b2e565b50949350505050565b60006001600160a01b038216610da45760405162461bcd60e51b815260206004820152602a60248201527f4552433732313a2062616c616e636520717565727920666f7220746865207a65604482015269726f206164647265737360b01b60648201526084016105f9565b506001600160a01b031660009081526003602052604090205490565b6009546001600160a01b03163314610dea5760405162461bcd60e51b81526004016105f990612423565b600a80546001600160a01b0319166001600160a01b0392909216919091179055565b6000610e1c600780546001019055565b6000610e2760075490565b9050610e333382611765565b610e3d8186611898565b6040805160a0810182528281523360208083018281528385018981526060850193909352608084018890526000868152600b8352949094208351815593516001850180546001600160a01b0319166001600160a01b0390921691909117905590518051929392610eb39260028501920190611d49565b5060608201516003820180546001600160a01b0319166001600160a01b0390921691909117905560808201518051610ef5916004840191602090910190611d49565b50905050807fbb80972488eb9d391e691b8b30ec8f4dda1c352a18e42fba5be9d5fa91231c6333863387604051610f2f94939291906122c3565b60405180910390a2949350505050565b60606001805461050e90612502565b610f59338383611923565b5050565b6009546001600160a01b03163314610f875760405162461bcd60e51b81526004016105f990612423565b600855565b610f9633836114e3565b610fb25760405162461bcd60e51b81526004016105f9906123d2565b610fbe848484846119f2565b50505050565b610fcc611d08565b6000600c83604051610fde919061223b565b9081526040805160209281900383018120546000818152600b855283902060a0830184528054835260018101546001600160a01b031694830194909452600284018054919550919284929084019161103590612502565b80601f016020809104026020016040519081016040528092919081815260200182805461106190612502565b80156110ae5780601f10611083576101008083540402835291602001916110ae565b820191906000526020600020905b81548152906001019060200180831161109157829003601f168201915b505050918352505060038201546001600160a01b031660208201526004820180546040909201916110de90612502565b80601f016020809104026020016040519081016040528092919081815260200182805461110a90612502565b80156111575780601f1061112c57610100808354040283529160200191611157565b820191906000526020600020905b81548152906001019060200180831161113a57829003601f168201915b50505050508152505092505050919050565b600a546000906001600160a01b031633146111d95760405162461bcd60e51b815260206004820152602a60248201527f4f6e6c79204c65676974696d697a652063616e20706572666f726d20746869736044820152691037b832b930ba34b7b760b11b60648201526084016105f9565b82600c856040516111ea919061223b565b90815260200160405180910390208190555081600d8560405161120d919061223b565b9081526020016040518091039020908051906020019061122e929190611d49565b50919392505050565b606061124282611458565b6112a85760405162461bcd60e51b815260206004820152603160248201527f45524337323155524953746f726167653a2055524920717565727920666f72206044820152703737b732bc34b9ba32b73a103a37b5b2b760791b60648201526084016105f9565b600082815260066020526040812080546112c190612502565b80601f01602080910402602001604051908101604052809291908181526020018280546112ed90612502565b801561133a5780601f1061130f5761010080835404028352916020019161133a565b820191906000526020600020905b81548152906001019060200180831161131d57829003601f168201915b50505050509050600061135860408051602081019091526000815290565b905080516000141561136b575092915050565b81511561139d578082604051602001611385929190612257565b60405160208183030381529060405292505050919050565b6113a684611a25565b949350505050565b6000818152600b60205260408120600301546001600160a01b0316331461142f5760405162461bcd60e51b815260206004820152602f60248201527f4f6e6c79207369676e6174757265206f776e65722063616e20706572666f726d60448201526e103a3434b99037b832b930ba34b7b760891b60648201526084016105f9565b81600c84604051611440919061223b565b90815260405190819003602001902055508092915050565b6000908152600260205260409020546001600160a01b0316151590565b600081815260046020526040902080546001600160a01b0319166001600160a01b03841690811790915581906114aa826109ec565b6001600160a01b03167f8c5be1e5ebec7d5bd14f71427d1e84f3dd0314c0f7b2291e5b200ac8c7c3b92560405160405180910390a45050565b60006114ee82611458565b61154f5760405162461bcd60e51b815260206004820152602c60248201527f4552433732313a206f70657261746f7220717565727920666f72206e6f6e657860448201526b34b9ba32b73a103a37b5b2b760a11b60648201526084016105f9565b600061155a836109ec565b9050806001600160a01b0316846001600160a01b031614806115955750836001600160a01b031661158a84610591565b6001600160a01b0316145b806113a657506001600160a01b0380821660009081526005602090815260408083209388168352929052205460ff166113a6565b826001600160a01b03166115dc826109ec565b6001600160a01b0316146116405760405162461bcd60e51b815260206004820152602560248201527f4552433732313a207472616e736665722066726f6d20696e636f72726563742060448201526437bbb732b960d91b60648201526084016105f9565b6001600160a01b0382166116a25760405162461bcd60e51b8152602060048201526024808201527f4552433732313a207472616e7366657220746f20746865207a65726f206164646044820152637265737360e01b60648201526084016105f9565b6116ad600082611475565b6001600160a01b03831660009081526003602052604081208054600192906116d69084906124bf565b90915550506001600160a01b0382166000908152600360205260408120805460019290611704908490612493565b909155505060008181526002602052604080822080546001600160a01b0319166001600160a01b0386811691821790925591518493918716917fddf252ad1be2c89b69c2b068fc378daa952ba7f163c4a11628f55a4df523b3ef91a4505050565b6001600160a01b0382166117bb5760405162461bcd60e51b815260206004820181905260248201527f4552433732313a206d696e7420746f20746865207a65726f206164647265737360448201526064016105f9565b6117c481611458565b156118115760405162461bcd60e51b815260206004820152601c60248201527f4552433732313a20746f6b656e20616c7265616479206d696e7465640000000060448201526064016105f9565b6001600160a01b038216600090815260036020526040812080546001929061183a908490612493565b909155505060008181526002602052604080822080546001600160a01b0319166001600160a01b03861690811790915590518392907fddf252ad1be2c89b69c2b068fc378daa952ba7f163c4a11628f55a4df523b3ef908290a45050565b6118a182611458565b6119045760405162461bcd60e51b815260206004820152602e60248201527f45524337323155524953746f726167653a2055524920736574206f66206e6f6e60448201526d32bc34b9ba32b73a103a37b5b2b760911b60648201526084016105f9565b6000828152600660209081526040909120825161072f92840190611d49565b816001600160a01b0316836001600160a01b031614156119855760405162461bcd60e51b815260206004820152601960248201527f4552433732313a20617070726f766520746f2063616c6c65720000000000000060448201526064016105f9565b6001600160a01b03838116600081815260056020908152604080832094871680845294825291829020805460ff191686151590811790915591519182527f17307eab39ab6107e8899845ad3d59bd9653f200f220920489ca2b5937696c31910160405180910390a3505050565b6119fd8484846115c9565b611a0984848484611afd565b610fbe5760405162461bcd60e51b81526004016105f990612380565b6060611a3082611458565b611a945760405162461bcd60e51b815260206004820152602f60248201527f4552433732314d657461646174613a2055524920717565727920666f72206e6f60448201526e3732bc34b9ba32b73a103a37b5b2b760891b60648201526084016105f9565b6000611aab60408051602081019091526000815290565b90506000815111611acb5760405180602001604052806000815250611af6565b80611ad584611c0a565b604051602001611ae6929190612257565b6040516020818303038152906040525b9392505050565b60006001600160a01b0384163b15611bff57604051630a85bd0160e11b81526001600160a01b0385169063150b7a0290611b41903390899088908890600401612286565b602060405180830381600087803b158015611b5b57600080fd5b505af1925050508015611b8b575060408051601f3d908101601f19168201909252611b889181019061201d565b60015b611be5573d808015611bb9576040519150601f19603f3d011682016040523d82523d6000602084013e611bbe565b606091505b508051611bdd5760405162461bcd60e51b81526004016105f990612380565b805181602001fd5b6001600160e01b031916630a85bd0160e11b1490506113a6565b506001949350505050565b606081611c2e5750506040805180820190915260018152600360fc1b602082015290565b8160005b8115611c585780611c428161253d565b9150611c519050600a836124ab565b9150611c32565b60008167ffffffffffffffff811115611c7357611c736125ae565b6040519080825280601f01601f191660200182016040528015611c9d576020820181803683370190505b5090505b84156113a657611cb26001836124bf565b9150611cbf600a86612558565b611cca906030612493565b60f81b818381518110611cdf57611cdf612598565b60200101906001600160f81b031916908160001a905350611d01600a866124ab565b9450611ca1565b6040518060a001604052806000815260200160006001600160a01b031681526020016060815260200160006001600160a01b03168152602001606081525090565b828054611d5590612502565b90600052602060002090601f016020900481019282611d775760008555611dbd565b82601f10611d9057805160ff1916838001178555611dbd565b82800160010185558215611dbd579182015b82811115611dbd578251825591602001919060010190611da2565b50611dc9929150611dcd565b5090565b5b80821115611dc95760008155600101611dce565b600067ffffffffffffffff80841115611dfd57611dfd6125ae565b604051601f8501601f19908116603f01168101908282118183101715611e2557611e256125ae565b81604052809350858152868686011115611e3e57600080fd5b858560208301376000602087830101525050509392505050565b80356001600160a01b0381168114611e6f57600080fd5b919050565b600082601f830112611e8557600080fd5b611af683833560208501611de2565b600060208284031215611ea657600080fd5b611af682611e58565b60008060408385031215611ec257600080fd5b611ecb83611e58565b9150611ed960208401611e58565b90509250929050565b600080600060608486031215611ef757600080fd5b611f0084611e58565b9250611f0e60208501611e58565b9150604084013590509250925092565b60008060008060808587031215611f3457600080fd5b611f3d85611e58565b9350611f4b60208601611e58565b925060408501359150606085013567ffffffffffffffff811115611f6e57600080fd5b8501601f81018713611f7f57600080fd5b611f8e87823560208401611de2565b91505092959194509250565b60008060408385031215611fad57600080fd5b611fb683611e58565b915060208301358015158114611fcb57600080fd5b809150509250929050565b60008060408385031215611fe957600080fd5b611ff283611e58565b946020939093013593505050565b60006020828403121561201257600080fd5b8135611af6816125c4565b60006020828403121561202f57600080fd5b8151611af6816125c4565b60006020828403121561204c57600080fd5b813567ffffffffffffffff81111561206357600080fd5b6113a684828501611e74565b60008060006060848603121561208457600080fd5b833567ffffffffffffffff8082111561209c57600080fd5b6120a887838801611e74565b945060208601359150808211156120be57600080fd5b6120ca87838801611e74565b935060408601359150808211156120e057600080fd5b506120ed86828701611e74565b9150509250925092565b6000806040838503121561210a57600080fd5b823567ffffffffffffffff81111561212157600080fd5b61212d85828601611e74565b95602094909401359450505050565b60008060006060848603121561215157600080fd5b833567ffffffffffffffff8082111561216957600080fd5b61217587838801611e74565b94506020860135935060408601359150808211156120e057600080fd5b6000602082840312156121a457600080fd5b5035919050565b600081518084526121c38160208601602086016124d6565b601f01601f19169290920160200192915050565b805182526000602082015160018060a01b0380821660208601526040840151915060a0604086015261220c60a08601836121ab565b9150806060850151166060860152506080830151848203608086015261223282826121ab565b95945050505050565b6000825161224d8184602087016124d6565b9190910192915050565b600083516122698184602088016124d6565b83519083019061227d8183602088016124d6565b01949350505050565b6001600160a01b03858116825284166020820152604081018390526080606082018190526000906122b9908301846121ab565b9695505050505050565b600060018060a01b038087168352608060208401526122e560808401876121ab565b818616604085015283810360608501526122ff81866121ab565b98975050505050505050565b6000602080830181845280855180835260408601915060408160051b870101925083870160005b8281101561236057603f1988860301845261234e8583516121d7565b94509285019290850190600101612332565b5092979650505050505050565b602081526000611af660208301846121ab565b60208082526032908201527f4552433732313a207472616e7366657220746f206e6f6e20455243373231526560408201527131b2b4bb32b91034b6b83632b6b2b73a32b960711b606082015260800190565b60208082526031908201527f4552433732313a207472616e736665722063616c6c6572206973206e6f74206f6040820152701ddb995c881b9bdc88185c1c1c9bdd9959607a1b606082015260800190565b6020808252603c908201527f4f6e6c792074686520636f6e7472616374206f776e657220284c65676974696d60408201527f697a65292063616e2063616c6c20746869732066756e6374696f6e2e00000000606082015260800190565b602081526000611af660208301846121d7565b600082198211156124a6576124a661256c565b500190565b6000826124ba576124ba612582565b500490565b6000828210156124d1576124d161256c565b500390565b60005b838110156124f15781810151838201526020016124d9565b83811115610fbe5750506000910152565b600181811c9082168061251657607f821691505b6020821081141561253757634e487b7160e01b600052602260045260246000fd5b50919050565b60006000198214156125515761255161256c565b5060010190565b60008261256757612567612582565b500690565b634e487b7160e01b600052601160045260246000fd5b634e487b7160e01b600052601260045260246000fd5b634e487b7160e01b600052603260045260246000fd5b634e487b7160e01b600052604160045260246000fd5b6001600160e01b0319811681146125da57600080fd5b5056fea26469706673582212209ba4d8ea15fa8e7294d093d2fb28d45cdeccabcea90fda369af2383a56b1434f64736f6c63430008070033",
  "linkReferences": {},
  "deployedLinkReferences": {}
}