{
  "_format": "hh-sol-artifact-1",
  "contractName": "LegitSignature",
  "sourceName": "contracts/LegitSignature.sol",
  "abi": [
    {
      "inputs": [],
      "stateMutability": "nonpayable",
      "type": "constructor"
    },
    {
      "anonymous": false,
      "inputs": [
        {
          "indexed": true,
          "internalType": "address",
          "name": "owner",
          "type": "address"
        },
        {
          "indexed": true,
          "internalType": "address",
          "name": "approved",
          "type": "address"
        },
        {
          "indexed": true,
          "internalType": "uint256",
          "name": "tokenId",
          "type": "uint256"
        }
      ],
      "name": "Approval",
      "type": "event"
    },
    {
      "anonymous": false,
      "inputs": [
        {
          "indexed": true,
          "internalType": "address",
          "name": "owner",
          "type": "address"
        },
        {
          "indexed": true,
          "internalType": "address",
          "name": "operator",
          "type": "address"
        },
        {
          "indexed": false,
          "internalType": "bool",
          "name": "approved",
          "type": "bool"
        }
      ],
      "name": "ApprovalForAll",
      "type": "event"
    },
    {
      "anonymous": false,
      "inputs": [
        {
          "indexed": false,
          "internalType": "address",
          "name": "signer",
          "type": "address"
        },
        {
          "indexed": false,
          "internalType": "string",
          "name": "nftAddrAndCID",
          "type": "string"
        },
        {
          "indexed": false,
          "internalType": "uint256",
          "name": "sigTokenId",
          "type": "uint256"
        },
        {
          "indexed": false,
          "internalType": "uint256",
          "name": "totalSigs",
          "type": "uint256"
        }
      ],
      "name": "SigLinkedtoNFT",
      "type": "event"
    },
    {
      "anonymous": false,
      "inputs": [
        {
          "indexed": true,
          "internalType": "uint256",
          "name": "tokenId",
          "type": "uint256"
        },
        {
          "indexed": false,
          "internalType": "address",
          "name": "creator",
          "type": "address"
        },
        {
          "indexed": false,
          "internalType": "string",
          "name": "creatorName",
          "type": "string"
        },
        {
          "indexed": false,
          "internalType": "address",
          "name": "owner",
          "type": "address"
        },
        {
          "indexed": false,
          "internalType": "string",
          "name": "socialAuthJson",
          "type": "string"
        }
      ],
      "name": "SignatureCreated",
      "type": "event"
    },
    {
      "anonymous": false,
      "inputs": [
        {
          "indexed": true,
          "internalType": "address",
          "name": "from",
          "type": "address"
        },
        {
          "indexed": true,
          "internalType": "address",
          "name": "to",
          "type": "address"
        },
        {
          "indexed": true,
          "internalType": "uint256",
          "name": "tokenId",
          "type": "uint256"
        }
      ],
      "name": "Transfer",
      "type": "event"
    },
    {
      "inputs": [
        {
          "internalType": "address",
          "name": "to",
          "type": "address"
        },
        {
          "internalType": "uint256",
          "name": "tokenId",
          "type": "uint256"
        }
      ],
      "name": "approve",
      "outputs": [],
      "stateMutability": "nonpayable",
      "type": "function"
    },
    {
      "inputs": [
        {
          "internalType": "address",
          "name": "owner",
          "type": "address"
        }
      ],
      "name": "balanceOf",
      "outputs": [
        {
          "internalType": "uint256",
          "name": "",
          "type": "uint256"
        }
      ],
      "stateMutability": "view",
      "type": "function"
    },
    {
      "inputs": [
        {
          "internalType": "string",
          "name": "nftAddrAndCID",
          "type": "string"
        },
        {
          "internalType": "uint256",
          "name": "sigTokenId",
          "type": "uint256"
        },
        {
          "internalType": "string",
          "name": "signedPreviewImageUrl",
          "type": "string"
        }
      ],
      "name": "contractLinkNFT",
      "outputs": [
        {
          "internalType": "uint256",
          "name": "",
          "type": "uint256"
        }
      ],
      "stateMutability": "nonpayable",
      "type": "function"
    },
    {
      "inputs": [
        {
          "internalType": "string",
          "name": "tokenURI",
          "type": "string"
        },
        {
          "internalType": "string",
          "name": "creatorName",
          "type": "string"
        },
        {
          "internalType": "string",
          "name": "socialAuthJson",
          "type": "string"
        }
      ],
      "name": "createToken",
      "outputs": [
        {
          "internalType": "uint256",
          "name": "",
          "type": "uint256"
        }
      ],
      "stateMutability": "payable",
      "type": "function"
    },
    {
      "inputs": [],
      "name": "fetchMySignatures",
      "outputs": [
        {
          "components": [
            {
              "internalType": "uint256",
              "name": "tokenId",
              "type": "uint256"
            },
            {
              "internalType": "address",
              "name": "creator",
              "type": "address"
            },
            {
              "internalType": "string",
              "name": "creatorName",
              "type": "string"
            },
            {
              "internalType": "address payable",
              "name": "owner",
              "type": "address"
            },
            {
              "internalType": "string",
              "name": "socialAuthJson",
              "type": "string"
            }
          ],
          "internalType": "struct LegitSignature.SignatureItem[]",
          "name": "",
          "type": "tuple[]"
        }
      ],
      "stateMutability": "view",
      "type": "function"
    },
    {
      "inputs": [],
      "name": "fetchSignatureItems",
      "outputs": [
        {
          "components": [
            {
              "internalType": "uint256",
              "name": "tokenId",
              "type": "uint256"
            },
            {
              "internalType": "address",
              "name": "creator",
              "type": "address"
            },
            {
              "internalType": "string",
              "name": "creatorName",
              "type": "string"
            },
            {
              "internalType": "address payable",
              "name": "owner",
              "type": "address"
            },
            {
              "internalType": "string",
              "name": "socialAuthJson",
              "type": "string"
            }
          ],
          "internalType": "struct LegitSignature.SignatureItem[]",
          "name": "",
          "type": "tuple[]"
        }
      ],
      "stateMutability": "view",
      "type": "function"
    },
    {
      "inputs": [
        {
          "internalType": "uint256",
          "name": "tokenId",
          "type": "uint256"
        }
      ],
      "name": "getApproved",
      "outputs": [
        {
          "internalType": "address",
          "name": "",
          "type": "address"
        }
      ],
      "stateMutability": "view",
      "type": "function"
    },
    {
      "inputs": [],
      "name": "getListingPrice",
      "outputs": [
        {
          "internalType": "uint256",
          "name": "",
          "type": "uint256"
        }
      ],
      "stateMutability": "view",
      "type": "function"
    },
    {
      "inputs": [
        {
          "internalType": "string",
          "name": "nftAddrAndCID",
          "type": "string"
        }
      ],
      "name": "getNFTSignatures",
      "outputs": [
        {
          "components": [
            {
              "internalType": "uint256",
              "name": "tokenId",
              "type": "uint256"
            },
            {
              "internalType": "address",
              "name": "creator",
              "type": "address"
            },
            {
              "internalType": "string",
              "name": "creatorName",
              "type": "string"
            },
            {
              "internalType": "address payable",
              "name": "owner",
              "type": "address"
            },
            {
              "internalType": "string",
              "name": "socialAuthJson",
              "type": "string"
            }
          ],
          "internalType": "struct LegitSignature.SignatureItem[]",
          "name": "",
          "type": "tuple[]"
        }
      ],
      "stateMutability": "view",
      "type": "function"
    },
    {
      "inputs": [
        {
          "internalType": "uint256",
          "name": "tokenId",
          "type": "uint256"
        }
      ],
      "name": "getSigOwner",
      "outputs": [
        {
          "internalType": "address",
          "name": "",
          "type": "address"
        }
      ],
      "stateMutability": "view",
      "type": "function"
    },
    {
      "inputs": [
        {
          "internalType": "uint256",
          "name": "tokenId",
          "type": "uint256"
        }
      ],
      "name": "getTokenCreator",
      "outputs": [
        {
          "internalType": "address",
          "name": "",
          "type": "address"
        }
      ],
      "stateMutability": "view",
      "type": "function"
    },
    {
      "inputs": [
        {
          "internalType": "address",
          "name": "owner",
          "type": "address"
        },
        {
          "internalType": "address",
          "name": "operator",
          "type": "address"
        }
      ],
      "name": "isApprovedForAll",
      "outputs": [
        {
          "internalType": "bool",
          "name": "",
          "type": "bool"
        }
      ],
      "stateMutability": "view",
      "type": "function"
    },
    {
      "inputs": [
        {
          "internalType": "string",
          "name": "nftAddrAndCID",
          "type": "string"
        },
        {
          "internalType": "uint256",
          "name": "sigTokenId",
          "type": "uint256"
        }
      ],
      "name": "linkNFT",
      "outputs": [
        {
          "internalType": "uint256",
          "name": "",
          "type": "uint256"
        }
      ],
      "stateMutability": "nonpayable",
      "type": "function"
    },
    {
      "inputs": [],
      "name": "name",
      "outputs": [
        {
          "internalType": "string",
          "name": "",
          "type": "string"
        }
      ],
      "stateMutability": "view",
      "type": "function"
    },
    {
      "inputs": [
        {
          "internalType": "uint256",
          "name": "tokenId",
          "type": "uint256"
        }
      ],
      "name": "ownerOf",
      "outputs": [
        {
          "internalType": "address",
          "name": "",
          "type": "address"
        }
      ],
      "stateMutability": "view",
      "type": "function"
    },
    {
      "inputs": [
        {
          "internalType": "address",
          "name": "from",
          "type": "address"
        },
        {
          "internalType": "address",
          "name": "to",
          "type": "address"
        },
        {
          "internalType": "uint256",
          "name": "tokenId",
          "type": "uint256"
        }
      ],
      "name": "safeTransferFrom",
      "outputs": [],
      "stateMutability": "nonpayable",
      "type": "function"
    },
    {
      "inputs": [
        {
          "internalType": "address",
          "name": "from",
          "type": "address"
        },
        {
          "internalType": "address",
          "name": "to",
          "type": "address"
        },
        {
          "internalType": "uint256",
          "name": "tokenId",
          "type": "uint256"
        },
        {
          "internalType": "bytes",
          "name": "_data",
          "type": "bytes"
        }
      ],
      "name": "safeTransferFrom",
      "outputs": [],
      "stateMutability": "nonpayable",
      "type": "function"
    },
    {
      "inputs": [
        {
          "internalType": "address",
          "name": "operator",
          "type": "address"
        },
        {
          "internalType": "bool",
          "name": "approved",
          "type": "bool"
        }
      ],
      "name": "setApprovalForAll",
      "outputs": [],
      "stateMutability": "nonpayable",
      "type": "function"
    },
    {
      "inputs": [
        {
          "internalType": "address",
          "name": "_legitNFTAddr",
          "type": "address"
        }
      ],
      "name": "setLegitNFTAddr",
      "outputs": [],
      "stateMutability": "payable",
      "type": "function"
    },
    {
      "inputs": [
        {
          "internalType": "bytes4",
          "name": "interfaceId",
          "type": "bytes4"
        }
      ],
      "name": "supportsInterface",
      "outputs": [
        {
          "internalType": "bool",
          "name": "",
          "type": "bool"
        }
      ],
      "stateMutability": "view",
      "type": "function"
    },
    {
      "inputs": [],
      "name": "symbol",
      "outputs": [
        {
          "internalType": "string",
          "name": "",
          "type": "string"
        }
      ],
      "stateMutability": "view",
      "type": "function"
    },
    {
      "inputs": [
        {
          "internalType": "uint256",
          "name": "tokenId",
          "type": "uint256"
        }
      ],
      "name": "tokenURI",
      "outputs": [
        {
          "internalType": "string",
          "name": "",
          "type": "string"
        }
      ],
      "stateMutability": "view",
      "type": "function"
    },
    {
      "inputs": [
        {
          "internalType": "address",
          "name": "from",
          "type": "address"
        },
        {
          "internalType": "address",
          "name": "to",
          "type": "address"
        },
        {
          "internalType": "uint256",
          "name": "tokenId",
          "type": "uint256"
        }
      ],
      "name": "transferFrom",
      "outputs": [],
      "stateMutability": "nonpayable",
      "type": "function"
    },
    {
      "inputs": [
        {
          "internalType": "uint256",
          "name": "_listingPrice",
          "type": "uint256"
        }
      ],
      "name": "updateListingPrice",
      "outputs": [],
      "stateMutability": "payable",
      "type": "function"
    }
  ],
  "bytecode": "0x608060405266038d7ea4c68000600855600a6009553480156200002157600080fd5b50604080518082018252600f81526e4c65676974205369676e617475726560881b6020808301918252835180850190945260048452634c53494760e01b9084015281519192916200007591600091620000a6565b5080516200008b906001906020840190620000a6565b5050600a80546001600160a01b031916331790555062000189565b828054620000b4906200014c565b90600052602060002090601f016020900481019282620000d8576000855562000123565b82601f10620000f357805160ff191683800117855562000123565b8280016001018555821562000123579182015b828111156200012357825182559160200191906001019062000106565b506200013192915062000135565b5090565b5b8082111562000131576000815560010162000136565b600181811c908216806200016157607f821691505b602082108114156200018357634e487b7160e01b600052602260045260246000fd5b50919050565b6129ee80620001996000396000f3fe60806040526004361061014b5760003560e01c80637549befb116100b6578063ae677aa31161006f578063ae677aa3146103c4578063b88d4fde146103d7578063c3d517d0146103f7578063c87b56dd14610417578063db542e5514610437578063e985e9c51461045757600080fd5b80637549befb146102f75780638700a1b31461030a578063934689a91461034357806394aed7d01461037c57806395d89b411461038f578063a22cb465146103a457600080fd5b8063418f86e011610108578063418f86e01461024057806342842e0e1461026257806356d21a86146102825780636352211e146102a25780636a365b5a146102c257806370a08231146102d757600080fd5b806301ffc9a71461015057806306fdde0314610185578063081812fc146101a7578063095ea7b3146101df57806312e855851461020157806323b872dd14610220575b600080fd5b34801561015c57600080fd5b5061017061016b3660046123a3565b6104a0565b60405190151581526020015b60405180910390f35b34801561019157600080fd5b5061019a6104f2565b60405161017c9190612739565b3480156101b357600080fd5b506101c76101c2366004612535565b610584565b6040516001600160a01b03909116815260200161017c565b3480156101eb57600080fd5b506101ff6101fa366004612379565b610611565b005b34801561020d57600080fd5b506008545b60405190815260200161017c565b34801561022c57600080fd5b506101ff61023b366004612285565b610727565b34801561024c57600080fd5b50610255610758565b60405161017c9190612681565b34801561026e57600080fd5b506101ff61027d366004612285565b6109c4565b34801561028e57600080fd5b5061025561029d3660046123dd565b6109df565b3480156102ae57600080fd5b506101c76102bd366004612535565b610c97565b3480156102ce57600080fd5b50610255610d0e565b3480156102e357600080fd5b506102126102f2366004612237565b610fdb565b6101ff610305366004612237565b611062565b34801561031657600080fd5b506101c7610325366004612535565b6000908152600c60205260409020600301546001600160a01b031690565b34801561034f57600080fd5b506101c761035e366004612535565b6000908152600c60205260409020600101546001600160a01b031690565b61021261038a366004612412565b6110ae565b34801561039b57600080fd5b5061019a6111e1565b3480156103b057600080fd5b506101ff6103bf36600461233d565b6111f0565b6101ff6103d2366004612535565b6111ff565b3480156103e357600080fd5b506101ff6103f23660046122c1565b61122e565b34801561040357600080fd5b506102126104123660046124df565b611266565b34801561042357600080fd5b5061019a610432366004612535565b611470565b34801561044357600080fd5b5061021261045236600461249a565b6115e7565b34801561046357600080fd5b50610170610472366004612252565b6001600160a01b03918216600090815260056020908152604080832093909416825291909152205460ff1690565b60006001600160e01b031982166380ac58cd60e01b14806104d157506001600160e01b03198216635b5e139f60e01b145b806104ec57506301ffc9a760e01b6001600160e01b03198316145b92915050565b606060008054610501906128bb565b80601f016020809104026020016040519081016040528092919081815260200182805461052d906128bb565b801561057a5780601f1061054f5761010080835404028352916020019161057a565b820191906000526020600020905b81548152906001019060200180831161055d57829003601f168201915b5050505050905090565b600061058f826117cf565b6105f55760405162461bcd60e51b815260206004820152602c60248201527f4552433732313a20617070726f76656420717565727920666f72206e6f6e657860448201526b34b9ba32b73a103a37b5b2b760a11b60648201526084015b60405180910390fd5b506000908152600460205260409020546001600160a01b031690565b600061061c82610c97565b9050806001600160a01b0316836001600160a01b0316141561068a5760405162461bcd60e51b815260206004820152602160248201527f4552433732313a20617070726f76616c20746f2063757272656e74206f776e656044820152603960f91b60648201526084016105ec565b336001600160a01b03821614806106a657506106a68133610472565b6107185760405162461bcd60e51b815260206004820152603860248201527f4552433732313a20617070726f76652063616c6c6572206973206e6f74206f7760448201527f6e6572206e6f7220617070726f76656420666f7220616c6c000000000000000060648201526084016105ec565b61072283836117ec565b505050565b610731338261185a565b61074d5760405162461bcd60e51b81526004016105ec9061279e565b610722838383611940565b600a546060906001600160a01b031633146107855760405162461bcd60e51b81526004016105ec906127ef565b600061079060075490565b90506000808267ffffffffffffffff8111156107ae576107ae612967565b6040519080825280602002602001820160405280156107e757816020015b6107d46120ab565b8152602001906001900390816107cc5790505b50905060005b838110156109bc57600061080282600161284c565b6000818152600c6020908152604091829020825160a0810184528154815260018201546001600160a01b0316928101929092526002810180549495509093919284929084019190610852906128bb565b80601f016020809104026020016040519081016040528092919081815260200182805461087e906128bb565b80156108cb5780601f106108a0576101008083540402835291602001916108cb565b820191906000526020600020905b8154815290600101906020018083116108ae57829003601f168201915b505050918352505060038201546001600160a01b031660208201526004820180546040909201916108fb906128bb565b80601f0160208091040260200160405190810160405280929190818152602001828054610927906128bb565b80156109745780601f1061094957610100808354040283529160200191610974565b820191906000526020600020905b81548152906001019060200180831161095757829003601f168201915b50505050508152505084868151811061098f5761098f612951565b60209081029190910101526109a560018661284c565b9450505080806109b4906128f6565b9150506107ed565b509392505050565b6107228383836040518060200160405280600081525061122e565b60606000600d836040516109f3919061257a565b9081526040805191829003602090810183208054808302850183019093528284529190830182828015610a4557602002820191906000526020600020905b815481526020019060010190808311610a31575b50505050509050600081519050600954811115610a6157506009545b60008167ffffffffffffffff811115610a7c57610a7c612967565b604051908082528060200260200182016040528015610ab557816020015b610aa26120ab565b815260200190600190039081610a9a5790505b50905060005b82811015610c8e576000848281518110610ad757610ad7612951565b6020908102919091018101516000818152600c83526040808220815160a0810183528154815260018201546001600160a01b03169581019590955260028101805494965092949390929184019190610b2e906128bb565b80601f0160208091040260200160405190810160405280929190818152602001828054610b5a906128bb565b8015610ba75780601f10610b7c57610100808354040283529160200191610ba7565b820191906000526020600020905b815481529060010190602001808311610b8a57829003601f168201915b505050918352505060038201546001600160a01b03166020820152600482018054604090920191610bd7906128bb565b80601f0160208091040260200160405190810160405280929190818152602001828054610c03906128bb565b8015610c505780601f10610c2557610100808354040283529160200191610c50565b820191906000526020600020905b815481529060010190602001808311610c3357829003601f168201915b505050505081525050905080848481518110610c6e57610c6e612951565b602002602001018190525050508080610c86906128f6565b915050610abb565b50949350505050565b6000818152600260205260408120546001600160a01b0316806104ec5760405162461bcd60e51b815260206004820152602960248201527f4552433732313a206f776e657220717565727920666f72206e6f6e657869737460448201526832b73a103a37b5b2b760b91b60648201526084016105ec565b60606000610d1b60075490565b905060008060005b83811015610d7e5733600c6000610d3b84600161284c565b81526020810191909152604001600020600301546001600160a01b03161415610d6c57610d6960018461284c565b92505b80610d76816128f6565b915050610d23565b5060008267ffffffffffffffff811115610d9a57610d9a612967565b604051908082528060200260200182016040528015610dd357816020015b610dc06120ab565b815260200190600190039081610db85790505b50905060005b84811015610c8e5733600c6000610df184600161284c565b81526020810191909152604001600020600301546001600160a01b03161415610fc9576000610e2182600161284c565b6000818152600c6020908152604091829020825160a0810184528154815260018201546001600160a01b0316928101929092526002810180549495509093919284929084019190610e71906128bb565b80601f0160208091040260200160405190810160405280929190818152602001828054610e9d906128bb565b8015610eea5780601f10610ebf57610100808354040283529160200191610eea565b820191906000526020600020905b815481529060010190602001808311610ecd57829003601f168201915b505050918352505060038201546001600160a01b03166020820152600482018054604090920191610f1a906128bb565b80601f0160208091040260200160405190810160405280929190818152602001828054610f46906128bb565b8015610f935780601f10610f6857610100808354040283529160200191610f93565b820191906000526020600020905b815481529060010190602001808311610f7657829003601f168201915b505050505081525050848681518110610fae57610fae612951565b6020908102919091010152610fc460018661284c565b945050505b80610fd3816128f6565b915050610dd9565b60006001600160a01b0382166110465760405162461bcd60e51b815260206004820152602a60248201527f4552433732313a2062616c616e636520717565727920666f7220746865207a65604482015269726f206164647265737360b01b60648201526084016105ec565b506001600160a01b031660009081526003602052604090205490565b600a546001600160a01b0316331461108c5760405162461bcd60e51b81526004016105ec906127ef565b600b80546001600160a01b0319166001600160a01b0392909216919091179055565b60006110be600780546001019055565b60006110c960075490565b90506110d53382611adc565b6110df8186611c0f565b6040805160a0810182528281523360208083018281528385018981526060850193909352608084018890526000868152600c8352949094208351815593516001850180546001600160a01b0319166001600160a01b039092169190911790559051805192939261115592600285019201906120ec565b5060608201516003820180546001600160a01b0319166001600160a01b03909216919091179055608082015180516111979160048401916020909101906120ec565b50905050807fbb80972488eb9d391e691b8b30ec8f4dda1c352a18e42fba5be9d5fa91231c63338633876040516111d19493929190612602565b60405180910390a2949350505050565b606060018054610501906128bb565b6111fb338383611c9a565b5050565b600a546001600160a01b031633146112295760405162461bcd60e51b81526004016105ec906127ef565b600855565b611238338361185a565b6112545760405162461bcd60e51b81526004016105ec9061279e565b61126084848484611d69565b50505050565b6000836000600d8260405161127b919061257a565b90815260408051918290036020908101832080548083028501830190935282845291908301828280156112cd57602002820191906000526020600020905b8154815260200190600101908083116112b9575b5050505050905060008151905060006112e7600954611d9c565b90506009548211156113116040518060600160405280602281526020016129976022913983611e9a565b9061132f5760405162461bcd60e51b81526004016105ec9190612739565b50600b546001600160a01b0316331461139d5760405162461bcd60e51b815260206004820152602a60248201527f4f6e6c79204c65676974696d697a652063616e20706572666f726d20746869736044820152691037b832b930ba34b7b760b11b60648201526084016105ec565b600d886040516113ad919061257a565b908152604051908190036020908101822080546001810182556000918252919020018890558690600e906113e2908b9061257a565b908152602001604051809103902090805190602001906114039291906120ec565b506000600d89604051611416919061257a565b9081526040519081900360200181205491507fafb1a1f56e9e7ff906c5b3aea9540af0f79f6d6e9ea643406d3b563cc47985d99061145b9033908c908c90869061264a565b60405180910390a15095979650505050505050565b606061147b826117cf565b6114e15760405162461bcd60e51b815260206004820152603160248201527f45524337323155524953746f726167653a2055524920717565727920666f72206044820152703737b732bc34b9ba32b73a103a37b5b2b760791b60648201526084016105ec565b600082815260066020526040812080546114fa906128bb565b80601f0160208091040260200160405190810160405280929190818152602001828054611526906128bb565b80156115735780601f1061154857610100808354040283529160200191611573565b820191906000526020600020905b81548152906001019060200180831161155657829003601f168201915b50505050509050600061159160408051602081019091526000815290565b90508051600014156115a4575092915050565b8151156115d65780826040516020016115be929190612596565b60405160208183030381529060405292505050919050565b6115df84611ec6565b949350505050565b6000826000600d826040516115fc919061257a565b908152604080519182900360209081018320805480830285018301909352828452919083018282801561164e57602002820191906000526020600020905b81548152602001906001019080831161163a575b505050505090506000815190506000611668600954611d9c565b90506009548211156116926040518060600160405280602281526020016129976022913983611e9a565b906116b05760405162461bcd60e51b81526004016105ec9190612739565b506000868152600c60205260409020600301546001600160a01b031633146117325760405162461bcd60e51b815260206004820152602f60248201527f4f6e6c79207369676e6174757265206f776e65722063616e20706572666f726d60448201526e103a3434b99037b832b930ba34b7b760891b60648201526084016105ec565b600d87604051611742919061257a565b9081526040516020918190038201812080546001810182556000918252928120909201889055600d90611776908a9061257a565b9081526040519081900360200181205491507fafb1a1f56e9e7ff906c5b3aea9540af0f79f6d6e9ea643406d3b563cc47985d9906117bb9033908b908b90869061264a565b60405180910390a150949695505050505050565b6000908152600260205260409020546001600160a01b0316151590565b600081815260046020526040902080546001600160a01b0319166001600160a01b038416908117909155819061182182610c97565b6001600160a01b03167f8c5be1e5ebec7d5bd14f71427d1e84f3dd0314c0f7b2291e5b200ac8c7c3b92560405160405180910390a45050565b6000611865826117cf565b6118c65760405162461bcd60e51b815260206004820152602c60248201527f4552433732313a206f70657261746f7220717565727920666f72206e6f6e657860448201526b34b9ba32b73a103a37b5b2b760a11b60648201526084016105ec565b60006118d183610c97565b9050806001600160a01b0316846001600160a01b0316148061190c5750836001600160a01b031661190184610584565b6001600160a01b0316145b806115df57506001600160a01b0380821660009081526005602090815260408083209388168352929052205460ff166115df565b826001600160a01b031661195382610c97565b6001600160a01b0316146119b75760405162461bcd60e51b815260206004820152602560248201527f4552433732313a207472616e736665722066726f6d20696e636f72726563742060448201526437bbb732b960d91b60648201526084016105ec565b6001600160a01b038216611a195760405162461bcd60e51b8152602060048201526024808201527f4552433732313a207472616e7366657220746f20746865207a65726f206164646044820152637265737360e01b60648201526084016105ec565b611a246000826117ec565b6001600160a01b0383166000908152600360205260408120805460019290611a4d908490612878565b90915550506001600160a01b0382166000908152600360205260408120805460019290611a7b90849061284c565b909155505060008181526002602052604080822080546001600160a01b0319166001600160a01b0386811691821790925591518493918716917fddf252ad1be2c89b69c2b068fc378daa952ba7f163c4a11628f55a4df523b3ef91a4505050565b6001600160a01b038216611b325760405162461bcd60e51b815260206004820181905260248201527f4552433732313a206d696e7420746f20746865207a65726f206164647265737360448201526064016105ec565b611b3b816117cf565b15611b885760405162461bcd60e51b815260206004820152601c60248201527f4552433732313a20746f6b656e20616c7265616479206d696e7465640000000060448201526064016105ec565b6001600160a01b0382166000908152600360205260408120805460019290611bb190849061284c565b909155505060008181526002602052604080822080546001600160a01b0319166001600160a01b03861690811790915590518392907fddf252ad1be2c89b69c2b068fc378daa952ba7f163c4a11628f55a4df523b3ef908290a45050565b611c18826117cf565b611c7b5760405162461bcd60e51b815260206004820152602e60248201527f45524337323155524953746f726167653a2055524920736574206f66206e6f6e60448201526d32bc34b9ba32b73a103a37b5b2b760911b60648201526084016105ec565b60008281526006602090815260409091208251610722928401906120ec565b816001600160a01b0316836001600160a01b03161415611cfc5760405162461bcd60e51b815260206004820152601960248201527f4552433732313a20617070726f766520746f2063616c6c65720000000000000060448201526064016105ec565b6001600160a01b03838116600081815260056020908152604080832094871680845294825291829020805460ff191686151590811790915591519182527f17307eab39ab6107e8899845ad3d59bd9653f200f220920489ca2b5937696c31910160405180910390a3505050565b611d74848484611940565b611d8084848484611f9e565b6112605760405162461bcd60e51b81526004016105ec9061274c565b606081611dc05750506040805180820190915260018152600360fc1b602082015290565b8160005b8115611dea5780611dd4816128f6565b9150611de39050600a83612864565b9150611dc4565b60008167ffffffffffffffff811115611e0557611e05612967565b6040519080825280601f01601f191660200182016040528015611e2f576020820181803683370190505b5090505b84156115df57611e44600183612878565b9150611e51600a86612911565b611e5c90603061284c565b60f81b818381518110611e7157611e71612951565b60200101906001600160f81b031916908160001a905350611e93600a86612864565b9450611e33565b60608282604051602001611eaf929190612596565b604051602081830303815290604052905092915050565b6060611ed1826117cf565b611f355760405162461bcd60e51b815260206004820152602f60248201527f4552433732314d657461646174613a2055524920717565727920666f72206e6f60448201526e3732bc34b9ba32b73a103a37b5b2b760891b60648201526084016105ec565b6000611f4c60408051602081019091526000815290565b90506000815111611f6c5760405180602001604052806000815250611f97565b80611f7684611d9c565b604051602001611f87929190612596565b6040516020818303038152906040525b9392505050565b60006001600160a01b0384163b156120a057604051630a85bd0160e11b81526001600160a01b0385169063150b7a0290611fe29033908990889088906004016125c5565b602060405180830381600087803b158015611ffc57600080fd5b505af192505050801561202c575060408051601f3d908101601f19168201909252612029918101906123c0565b60015b612086573d80801561205a576040519150601f19603f3d011682016040523d82523d6000602084013e61205f565b606091505b50805161207e5760405162461bcd60e51b81526004016105ec9061274c565b805181602001fd5b6001600160e01b031916630a85bd0160e11b1490506115df565b506001949350505050565b6040518060a001604052806000815260200160006001600160a01b031681526020016060815260200160006001600160a01b03168152602001606081525090565b8280546120f8906128bb565b90600052602060002090601f01602090048101928261211a5760008555612160565b82601f1061213357805160ff1916838001178555612160565b82800160010185558215612160579182015b82811115612160578251825591602001919060010190612145565b5061216c929150612170565b5090565b5b8082111561216c5760008155600101612171565b600067ffffffffffffffff808411156121a0576121a0612967565b604051601f8501601f19908116603f011681019082821181831017156121c8576121c8612967565b816040528093508581528686860111156121e157600080fd5b858560208301376000602087830101525050509392505050565b80356001600160a01b038116811461221257600080fd5b919050565b600082601f83011261222857600080fd5b611f9783833560208501612185565b60006020828403121561224957600080fd5b611f97826121fb565b6000806040838503121561226557600080fd5b61226e836121fb565b915061227c602084016121fb565b90509250929050565b60008060006060848603121561229a57600080fd5b6122a3846121fb565b92506122b1602085016121fb565b9150604084013590509250925092565b600080600080608085870312156122d757600080fd5b6122e0856121fb565b93506122ee602086016121fb565b925060408501359150606085013567ffffffffffffffff81111561231157600080fd5b8501601f8101871361232257600080fd5b61233187823560208401612185565b91505092959194509250565b6000806040838503121561235057600080fd5b612359836121fb565b91506020830135801515811461236e57600080fd5b809150509250929050565b6000806040838503121561238c57600080fd5b612395836121fb565b946020939093013593505050565b6000602082840312156123b557600080fd5b8135611f978161297d565b6000602082840312156123d257600080fd5b8151611f978161297d565b6000602082840312156123ef57600080fd5b813567ffffffffffffffff81111561240657600080fd5b6115df84828501612217565b60008060006060848603121561242757600080fd5b833567ffffffffffffffff8082111561243f57600080fd5b61244b87838801612217565b9450602086013591508082111561246157600080fd5b61246d87838801612217565b9350604086013591508082111561248357600080fd5b5061249086828701612217565b9150509250925092565b600080604083850312156124ad57600080fd5b823567ffffffffffffffff8111156124c457600080fd5b6124d085828601612217565b95602094909401359450505050565b6000806000606084860312156124f457600080fd5b833567ffffffffffffffff8082111561250c57600080fd5b61251887838801612217565b945060208601359350604086013591508082111561248357600080fd5b60006020828403121561254757600080fd5b5035919050565b6000815180845261256681602086016020860161288f565b601f01601f19169290920160200192915050565b6000825161258c81846020870161288f565b9190910192915050565b600083516125a881846020880161288f565b8351908301906125bc81836020880161288f565b01949350505050565b6001600160a01b03858116825284166020820152604081018390526080606082018190526000906125f89083018461254e565b9695505050505050565b600060018060a01b03808716835260806020840152612624608084018761254e565b8186166040850152838103606085015261263e818661254e565b98975050505050505050565b6001600160a01b038516815260806020820181905260009061266e9083018661254e565b6040830194909452506060015292915050565b60006020808301818452808551808352604092508286019150828160051b87010184880160005b8381101561272b57888303603f19018552815180518452878101516001600160a01b03908116898601528782015160a0898701819052916126eb8388018361254e565b92506060915080828501511682880152505060808083015192508582038187015250612717818361254e565b9689019694505050908601906001016126a8565b509098975050505050505050565b602081526000611f97602083018461254e565b60208082526032908201527f4552433732313a207472616e7366657220746f206e6f6e20455243373231526560408201527131b2b4bb32b91034b6b83632b6b2b73a32b960711b606082015260800190565b60208082526031908201527f4552433732313a207472616e736665722063616c6c6572206973206e6f74206f6040820152701ddb995c881b9bdc88185c1c1c9bdd9959607a1b606082015260800190565b6020808252603c908201527f4f6e6c792074686520636f6e7472616374206f776e657220284c65676974696d60408201527f697a65292063616e2063616c6c20746869732066756e6374696f6e2e00000000606082015260800190565b6000821982111561285f5761285f612925565b500190565b6000826128735761287361293b565b500490565b60008282101561288a5761288a612925565b500390565b60005b838110156128aa578181015183820152602001612892565b838111156112605750506000910152565b600181811c908216806128cf57607f821691505b602082108114156128f057634e487b7160e01b600052602260045260246000fd5b50919050565b600060001982141561290a5761290a612925565b5060010190565b6000826129205761292061293b565b500690565b634e487b7160e01b600052601160045260246000fd5b634e487b7160e01b600052601260045260246000fd5b634e487b7160e01b600052603260045260246000fd5b634e487b7160e01b600052604160045260246000fd5b6001600160e01b03198116811461299357600080fd5b5056fe4d6178206e756d626572206f66207369676e61747572657320726561636865643a20a2646970667358221220145dfe06059ec2fdd2695ad690dd0ed4c9ebcec905230e07dcb82ba456869ca264736f6c63430008070033",
  "linkReferences": {},
  "deployedLinkReferences": {}
}