{
  "_format": "hh-sol-artifact-1",
  "contractName": "LegitSignature",
  "sourceName": "contracts/LegitSignature.sol",
  "abi": [
    {
      "inputs": [],
      "stateMutability": "nonpayable",
      "type": "constructor"
    },
    {
      "anonymous": false,
      "inputs": [
        {
          "indexed": true,
          "internalType": "address",
          "name": "owner",
          "type": "address"
        },
        {
          "indexed": true,
          "internalType": "address",
          "name": "approved",
          "type": "address"
        },
        {
          "indexed": true,
          "internalType": "uint256",
          "name": "tokenId",
          "type": "uint256"
        }
      ],
      "name": "Approval",
      "type": "event"
    },
    {
      "anonymous": false,
      "inputs": [
        {
          "indexed": true,
          "internalType": "address",
          "name": "owner",
          "type": "address"
        },
        {
          "indexed": true,
          "internalType": "address",
          "name": "operator",
          "type": "address"
        },
        {
          "indexed": false,
          "internalType": "bool",
          "name": "approved",
          "type": "bool"
        }
      ],
      "name": "ApprovalForAll",
      "type": "event"
    },
    {
      "anonymous": false,
      "inputs": [
        {
          "indexed": false,
          "internalType": "address",
          "name": "signer",
          "type": "address"
        },
        {
          "indexed": false,
          "internalType": "string",
          "name": "nftAddrAndCID",
          "type": "string"
        },
        {
          "indexed": false,
          "internalType": "uint256",
          "name": "sigTokenId",
          "type": "uint256"
        },
        {
          "indexed": false,
          "internalType": "uint256",
          "name": "totalSigs",
          "type": "uint256"
        }
      ],
      "name": "SigLinkedtoNFT",
      "type": "event"
    },
    {
      "anonymous": false,
      "inputs": [
        {
          "indexed": true,
          "internalType": "uint256",
          "name": "tokenId",
          "type": "uint256"
        },
        {
          "indexed": false,
          "internalType": "address",
          "name": "creator",
          "type": "address"
        },
        {
          "indexed": false,
          "internalType": "string",
          "name": "creatorName",
          "type": "string"
        },
        {
          "indexed": false,
          "internalType": "address",
          "name": "owner",
          "type": "address"
        },
        {
          "indexed": false,
          "internalType": "string",
          "name": "socialAuthJson",
          "type": "string"
        }
      ],
      "name": "SignatureCreated",
      "type": "event"
    },
    {
      "anonymous": false,
      "inputs": [
        {
          "indexed": true,
          "internalType": "address",
          "name": "from",
          "type": "address"
        },
        {
          "indexed": true,
          "internalType": "address",
          "name": "to",
          "type": "address"
        },
        {
          "indexed": true,
          "internalType": "uint256",
          "name": "tokenId",
          "type": "uint256"
        }
      ],
      "name": "Transfer",
      "type": "event"
    },
    {
      "inputs": [
        {
          "internalType": "address",
          "name": "to",
          "type": "address"
        },
        {
          "internalType": "uint256",
          "name": "tokenId",
          "type": "uint256"
        }
      ],
      "name": "approve",
      "outputs": [],
      "stateMutability": "nonpayable",
      "type": "function"
    },
    {
      "inputs": [
        {
          "internalType": "address",
          "name": "owner",
          "type": "address"
        }
      ],
      "name": "balanceOf",
      "outputs": [
        {
          "internalType": "uint256",
          "name": "",
          "type": "uint256"
        }
      ],
      "stateMutability": "view",
      "type": "function"
    },
    {
      "inputs": [
        {
          "internalType": "string",
          "name": "nftAddrAndCID",
          "type": "string"
        },
        {
          "internalType": "uint256",
          "name": "sigTokenId",
          "type": "uint256"
        },
        {
          "internalType": "string",
          "name": "signedPreviewImageUrl",
          "type": "string"
        }
      ],
      "name": "contractLinkNFT",
      "outputs": [
        {
          "internalType": "uint256",
          "name": "",
          "type": "uint256"
        }
      ],
      "stateMutability": "nonpayable",
      "type": "function"
    },
    {
      "inputs": [],
      "name": "contractURI",
      "outputs": [
        {
          "internalType": "string",
          "name": "",
          "type": "string"
        }
      ],
      "stateMutability": "view",
      "type": "function"
    },
    {
      "inputs": [
        {
          "internalType": "string",
          "name": "tokenURI",
          "type": "string"
        },
        {
          "internalType": "string",
          "name": "creatorName",
          "type": "string"
        },
        {
          "internalType": "string",
          "name": "socialAuthJson",
          "type": "string"
        }
      ],
      "name": "createToken",
      "outputs": [
        {
          "internalType": "uint256",
          "name": "",
          "type": "uint256"
        }
      ],
      "stateMutability": "payable",
      "type": "function"
    },
    {
      "inputs": [],
      "name": "fetchMySignatures",
      "outputs": [
        {
          "components": [
            {
              "internalType": "uint256",
              "name": "tokenId",
              "type": "uint256"
            },
            {
              "internalType": "address",
              "name": "creator",
              "type": "address"
            },
            {
              "internalType": "string",
              "name": "creatorName",
              "type": "string"
            },
            {
              "internalType": "address payable",
              "name": "owner",
              "type": "address"
            },
            {
              "internalType": "string",
              "name": "socialAuthJson",
              "type": "string"
            }
          ],
          "internalType": "struct LegitSignature.SignatureItem[]",
          "name": "",
          "type": "tuple[]"
        }
      ],
      "stateMutability": "view",
      "type": "function"
    },
    {
      "inputs": [],
      "name": "fetchSignatureItems",
      "outputs": [
        {
          "components": [
            {
              "internalType": "uint256",
              "name": "tokenId",
              "type": "uint256"
            },
            {
              "internalType": "address",
              "name": "creator",
              "type": "address"
            },
            {
              "internalType": "string",
              "name": "creatorName",
              "type": "string"
            },
            {
              "internalType": "address payable",
              "name": "owner",
              "type": "address"
            },
            {
              "internalType": "string",
              "name": "socialAuthJson",
              "type": "string"
            }
          ],
          "internalType": "struct LegitSignature.SignatureItem[]",
          "name": "",
          "type": "tuple[]"
        }
      ],
      "stateMutability": "view",
      "type": "function"
    },
    {
      "inputs": [
        {
          "internalType": "uint256",
          "name": "tokenId",
          "type": "uint256"
        }
      ],
      "name": "getApproved",
      "outputs": [
        {
          "internalType": "address",
          "name": "",
          "type": "address"
        }
      ],
      "stateMutability": "view",
      "type": "function"
    },
    {
      "inputs": [],
      "name": "getListingPrice",
      "outputs": [
        {
          "internalType": "uint256",
          "name": "",
          "type": "uint256"
        }
      ],
      "stateMutability": "view",
      "type": "function"
    },
    {
      "inputs": [
        {
          "internalType": "string",
          "name": "nftAddrAndCID",
          "type": "string"
        }
      ],
      "name": "getNFTSignatures",
      "outputs": [
        {
          "components": [
            {
              "internalType": "uint256",
              "name": "tokenId",
              "type": "uint256"
            },
            {
              "internalType": "address",
              "name": "creator",
              "type": "address"
            },
            {
              "internalType": "string",
              "name": "creatorName",
              "type": "string"
            },
            {
              "internalType": "address payable",
              "name": "owner",
              "type": "address"
            },
            {
              "internalType": "string",
              "name": "socialAuthJson",
              "type": "string"
            }
          ],
          "internalType": "struct LegitSignature.SignatureItem[]",
          "name": "",
          "type": "tuple[]"
        }
      ],
      "stateMutability": "view",
      "type": "function"
    },
    {
      "inputs": [
        {
          "internalType": "uint256",
          "name": "tokenId",
          "type": "uint256"
        }
      ],
      "name": "getSigOwner",
      "outputs": [
        {
          "internalType": "address",
          "name": "",
          "type": "address"
        }
      ],
      "stateMutability": "view",
      "type": "function"
    },
    {
      "inputs": [
        {
          "internalType": "uint256",
          "name": "tokenId",
          "type": "uint256"
        }
      ],
      "name": "getTokenCreator",
      "outputs": [
        {
          "internalType": "address",
          "name": "",
          "type": "address"
        }
      ],
      "stateMutability": "view",
      "type": "function"
    },
    {
      "inputs": [
        {
          "internalType": "address",
          "name": "owner",
          "type": "address"
        },
        {
          "internalType": "address",
          "name": "operator",
          "type": "address"
        }
      ],
      "name": "isApprovedForAll",
      "outputs": [
        {
          "internalType": "bool",
          "name": "",
          "type": "bool"
        }
      ],
      "stateMutability": "view",
      "type": "function"
    },
    {
      "inputs": [
        {
          "internalType": "string",
          "name": "nftAddrAndCID",
          "type": "string"
        },
        {
          "internalType": "uint256",
          "name": "sigTokenId",
          "type": "uint256"
        }
      ],
      "name": "linkNFT",
      "outputs": [
        {
          "internalType": "uint256",
          "name": "",
          "type": "uint256"
        }
      ],
      "stateMutability": "nonpayable",
      "type": "function"
    },
    {
      "inputs": [],
      "name": "name",
      "outputs": [
        {
          "internalType": "string",
          "name": "",
          "type": "string"
        }
      ],
      "stateMutability": "view",
      "type": "function"
    },
    {
      "inputs": [
        {
          "internalType": "uint256",
          "name": "tokenId",
          "type": "uint256"
        }
      ],
      "name": "ownerOf",
      "outputs": [
        {
          "internalType": "address",
          "name": "",
          "type": "address"
        }
      ],
      "stateMutability": "view",
      "type": "function"
    },
    {
      "inputs": [
        {
          "internalType": "address",
          "name": "from",
          "type": "address"
        },
        {
          "internalType": "address",
          "name": "to",
          "type": "address"
        },
        {
          "internalType": "uint256",
          "name": "tokenId",
          "type": "uint256"
        }
      ],
      "name": "safeTransferFrom",
      "outputs": [],
      "stateMutability": "nonpayable",
      "type": "function"
    },
    {
      "inputs": [
        {
          "internalType": "address",
          "name": "from",
          "type": "address"
        },
        {
          "internalType": "address",
          "name": "to",
          "type": "address"
        },
        {
          "internalType": "uint256",
          "name": "tokenId",
          "type": "uint256"
        },
        {
          "internalType": "bytes",
          "name": "_data",
          "type": "bytes"
        }
      ],
      "name": "safeTransferFrom",
      "outputs": [],
      "stateMutability": "nonpayable",
      "type": "function"
    },
    {
      "inputs": [
        {
          "internalType": "address",
          "name": "operator",
          "type": "address"
        },
        {
          "internalType": "bool",
          "name": "approved",
          "type": "bool"
        }
      ],
      "name": "setApprovalForAll",
      "outputs": [],
      "stateMutability": "nonpayable",
      "type": "function"
    },
    {
      "inputs": [
        {
          "internalType": "address",
          "name": "_legitNFTAddr",
          "type": "address"
        }
      ],
      "name": "setLegitNFTAddr",
      "outputs": [],
      "stateMutability": "payable",
      "type": "function"
    },
    {
      "inputs": [
        {
          "internalType": "bytes4",
          "name": "interfaceId",
          "type": "bytes4"
        }
      ],
      "name": "supportsInterface",
      "outputs": [
        {
          "internalType": "bool",
          "name": "",
          "type": "bool"
        }
      ],
      "stateMutability": "view",
      "type": "function"
    },
    {
      "inputs": [],
      "name": "symbol",
      "outputs": [
        {
          "internalType": "string",
          "name": "",
          "type": "string"
        }
      ],
      "stateMutability": "view",
      "type": "function"
    },
    {
      "inputs": [
        {
          "internalType": "uint256",
          "name": "tokenId",
          "type": "uint256"
        }
      ],
      "name": "tokenURI",
      "outputs": [
        {
          "internalType": "string",
          "name": "",
          "type": "string"
        }
      ],
      "stateMutability": "view",
      "type": "function"
    },
    {
      "inputs": [
        {
          "internalType": "address",
          "name": "from",
          "type": "address"
        },
        {
          "internalType": "address",
          "name": "to",
          "type": "address"
        },
        {
          "internalType": "uint256",
          "name": "tokenId",
          "type": "uint256"
        }
      ],
      "name": "transferFrom",
      "outputs": [],
      "stateMutability": "nonpayable",
      "type": "function"
    },
    {
      "inputs": [
        {
          "internalType": "uint256",
          "name": "_listingPrice",
          "type": "uint256"
        }
      ],
      "name": "updateListingPrice",
      "outputs": [],
      "stateMutability": "payable",
      "type": "function"
    }
  ],
  "bytecode": "0x608060405266038d7ea4c68000600855600a6009553480156200002157600080fd5b50604080518082018252600f81526e4c65676974205369676e617475726560881b6020808301918252835180850190945260048452634c53494760e01b9084015281519192916200007591600091620000a6565b5080516200008b906001906020840190620000a6565b5050600a80546001600160a01b031916331790555062000189565b828054620000b4906200014c565b90600052602060002090601f016020900481019282620000d8576000855562000123565b82601f10620000f357805160ff191683800117855562000123565b8280016001018555821562000123579182015b828111156200012357825182559160200191906001019062000106565b506200013192915062000135565b5090565b5b8082111562000131576000815560010162000136565b600181811c908216806200016157607f821691505b602082108114156200018357634e487b7160e01b600052602260045260246000fd5b50919050565b612aba80620001996000396000f3fe6080604052600436106101665760003560e01c80637549befb116100d1578063ae677aa31161008a578063c87b56dd11610064578063c87b56dd14610432578063db542e5514610452578063e8a3d48514610472578063e985e9c51461048757600080fd5b8063ae677aa3146103df578063b88d4fde146103f2578063c3d517d01461041257600080fd5b80637549befb146103125780638700a1b314610325578063934689a91461035e57806394aed7d01461039757806395d89b41146103aa578063a22cb465146103bf57600080fd5b8063418f86e011610123578063418f86e01461025b57806342842e0e1461027d57806356d21a861461029d5780636352211e146102bd5780636a365b5a146102dd57806370a08231146102f257600080fd5b806301ffc9a71461016b57806306fdde03146101a0578063081812fc146101c2578063095ea7b3146101fa57806312e855851461021c57806323b872dd1461023b575b600080fd5b34801561017757600080fd5b5061018b6101863660046123f3565b6104d0565b60405190151581526020015b60405180910390f35b3480156101ac57600080fd5b506101b5610522565b6040516101979190612789565b3480156101ce57600080fd5b506101e26101dd366004612585565b6105b4565b6040516001600160a01b039091168152602001610197565b34801561020657600080fd5b5061021a6102153660046123c9565b610641565b005b34801561022857600080fd5b506008545b604051908152602001610197565b34801561024757600080fd5b5061021a6102563660046122d5565b610757565b34801561026757600080fd5b50610270610788565b60405161019791906126d1565b34801561028957600080fd5b5061021a6102983660046122d5565b6109f4565b3480156102a957600080fd5b506102706102b836600461242d565b610a0f565b3480156102c957600080fd5b506101e26102d8366004612585565b610cc7565b3480156102e957600080fd5b50610270610d3e565b3480156102fe57600080fd5b5061022d61030d366004612287565b61100b565b61021a610320366004612287565b611092565b34801561033157600080fd5b506101e2610340366004612585565b6000908152600c60205260409020600301546001600160a01b031690565b34801561036a57600080fd5b506101e2610379366004612585565b6000908152600c60205260409020600101546001600160a01b031690565b61022d6103a5366004612462565b6110de565b3480156103b657600080fd5b506101b5611211565b3480156103cb57600080fd5b5061021a6103da36600461238d565b611220565b61021a6103ed366004612585565b61122f565b3480156103fe57600080fd5b5061021a61040d366004612311565b61125e565b34801561041e57600080fd5b5061022d61042d36600461252f565b611296565b34801561043e57600080fd5b506101b561044d366004612585565b6114a0565b34801561045e57600080fd5b5061022d61046d3660046124ea565b611617565b34801561047e57600080fd5b506101b56117ff565b34801561049357600080fd5b5061018b6104a23660046122a2565b6001600160a01b03918216600090815260056020908152604080832093909416825291909152205460ff1690565b60006001600160e01b031982166380ac58cd60e01b148061050157506001600160e01b03198216635b5e139f60e01b145b8061051c57506301ffc9a760e01b6001600160e01b03198316145b92915050565b6060600080546105319061290b565b80601f016020809104026020016040519081016040528092919081815260200182805461055d9061290b565b80156105aa5780601f1061057f576101008083540402835291602001916105aa565b820191906000526020600020905b81548152906001019060200180831161058d57829003601f168201915b5050505050905090565b60006105bf8261181f565b6106255760405162461bcd60e51b815260206004820152602c60248201527f4552433732313a20617070726f76656420717565727920666f72206e6f6e657860448201526b34b9ba32b73a103a37b5b2b760a11b60648201526084015b60405180910390fd5b506000908152600460205260409020546001600160a01b031690565b600061064c82610cc7565b9050806001600160a01b0316836001600160a01b031614156106ba5760405162461bcd60e51b815260206004820152602160248201527f4552433732313a20617070726f76616c20746f2063757272656e74206f776e656044820152603960f91b606482015260840161061c565b336001600160a01b03821614806106d657506106d681336104a2565b6107485760405162461bcd60e51b815260206004820152603860248201527f4552433732313a20617070726f76652063616c6c6572206973206e6f74206f7760448201527f6e6572206e6f7220617070726f76656420666f7220616c6c0000000000000000606482015260840161061c565b610752838361183c565b505050565b61076133826118aa565b61077d5760405162461bcd60e51b815260040161061c906127ee565b610752838383611990565b600a546060906001600160a01b031633146107b55760405162461bcd60e51b815260040161061c9061283f565b60006107c060075490565b90506000808267ffffffffffffffff8111156107de576107de6129b7565b60405190808252806020026020018201604052801561081757816020015b6108046120fb565b8152602001906001900390816107fc5790505b50905060005b838110156109ec57600061083282600161289c565b6000818152600c6020908152604091829020825160a0810184528154815260018201546001600160a01b03169281019290925260028101805494955090939192849290840191906108829061290b565b80601f01602080910402602001604051908101604052809291908181526020018280546108ae9061290b565b80156108fb5780601f106108d0576101008083540402835291602001916108fb565b820191906000526020600020905b8154815290600101906020018083116108de57829003601f168201915b505050918352505060038201546001600160a01b0316602082015260048201805460409092019161092b9061290b565b80601f01602080910402602001604051908101604052809291908181526020018280546109579061290b565b80156109a45780601f10610979576101008083540402835291602001916109a4565b820191906000526020600020905b81548152906001019060200180831161098757829003601f168201915b5050505050815250508486815181106109bf576109bf6129a1565b60209081029190910101526109d560018661289c565b9450505080806109e490612946565b91505061081d565b509392505050565b6107528383836040518060200160405280600081525061125e565b60606000600d83604051610a2391906125ca565b9081526040805191829003602090810183208054808302850183019093528284529190830182828015610a7557602002820191906000526020600020905b815481526020019060010190808311610a61575b50505050509050600081519050600954811115610a9157506009545b60008167ffffffffffffffff811115610aac57610aac6129b7565b604051908082528060200260200182016040528015610ae557816020015b610ad26120fb565b815260200190600190039081610aca5790505b50905060005b82811015610cbe576000848281518110610b0757610b076129a1565b6020908102919091018101516000818152600c83526040808220815160a0810183528154815260018201546001600160a01b03169581019590955260028101805494965092949390929184019190610b5e9061290b565b80601f0160208091040260200160405190810160405280929190818152602001828054610b8a9061290b565b8015610bd75780601f10610bac57610100808354040283529160200191610bd7565b820191906000526020600020905b815481529060010190602001808311610bba57829003601f168201915b505050918352505060038201546001600160a01b03166020820152600482018054604090920191610c079061290b565b80601f0160208091040260200160405190810160405280929190818152602001828054610c339061290b565b8015610c805780601f10610c5557610100808354040283529160200191610c80565b820191906000526020600020905b815481529060010190602001808311610c6357829003601f168201915b505050505081525050905080848481518110610c9e57610c9e6129a1565b602002602001018190525050508080610cb690612946565b915050610aeb565b50949350505050565b6000818152600260205260408120546001600160a01b03168061051c5760405162461bcd60e51b815260206004820152602960248201527f4552433732313a206f776e657220717565727920666f72206e6f6e657869737460448201526832b73a103a37b5b2b760b91b606482015260840161061c565b60606000610d4b60075490565b905060008060005b83811015610dae5733600c6000610d6b84600161289c565b81526020810191909152604001600020600301546001600160a01b03161415610d9c57610d9960018461289c565b92505b80610da681612946565b915050610d53565b5060008267ffffffffffffffff811115610dca57610dca6129b7565b604051908082528060200260200182016040528015610e0357816020015b610df06120fb565b815260200190600190039081610de85790505b50905060005b84811015610cbe5733600c6000610e2184600161289c565b81526020810191909152604001600020600301546001600160a01b03161415610ff9576000610e5182600161289c565b6000818152600c6020908152604091829020825160a0810184528154815260018201546001600160a01b0316928101929092526002810180549495509093919284929084019190610ea19061290b565b80601f0160208091040260200160405190810160405280929190818152602001828054610ecd9061290b565b8015610f1a5780601f10610eef57610100808354040283529160200191610f1a565b820191906000526020600020905b815481529060010190602001808311610efd57829003601f168201915b505050918352505060038201546001600160a01b03166020820152600482018054604090920191610f4a9061290b565b80601f0160208091040260200160405190810160405280929190818152602001828054610f769061290b565b8015610fc35780601f10610f9857610100808354040283529160200191610fc3565b820191906000526020600020905b815481529060010190602001808311610fa657829003601f168201915b505050505081525050848681518110610fde57610fde6129a1565b6020908102919091010152610ff460018661289c565b945050505b8061100381612946565b915050610e09565b60006001600160a01b0382166110765760405162461bcd60e51b815260206004820152602a60248201527f4552433732313a2062616c616e636520717565727920666f7220746865207a65604482015269726f206164647265737360b01b606482015260840161061c565b506001600160a01b031660009081526003602052604090205490565b600a546001600160a01b031633146110bc5760405162461bcd60e51b815260040161061c9061283f565b600b80546001600160a01b0319166001600160a01b0392909216919091179055565b60006110ee600780546001019055565b60006110f960075490565b90506111053382611b2c565b61110f8186611c5f565b6040805160a0810182528281523360208083018281528385018981526060850193909352608084018890526000868152600c8352949094208351815593516001850180546001600160a01b0319166001600160a01b0390921691909117905590518051929392611185926002850192019061213c565b5060608201516003820180546001600160a01b0319166001600160a01b03909216919091179055608082015180516111c791600484019160209091019061213c565b50905050807fbb80972488eb9d391e691b8b30ec8f4dda1c352a18e42fba5be9d5fa91231c63338633876040516112019493929190612652565b60405180910390a2949350505050565b6060600180546105319061290b565b61122b338383611cea565b5050565b600a546001600160a01b031633146112595760405162461bcd60e51b815260040161061c9061283f565b600855565b61126833836118aa565b6112845760405162461bcd60e51b815260040161061c906127ee565b61129084848484611db9565b50505050565b6000836000600d826040516112ab91906125ca565b90815260408051918290036020908101832080548083028501830190935282845291908301828280156112fd57602002820191906000526020600020905b8154815260200190600101908083116112e9575b505050505090506000815190506000611317600954611dec565b90506009548211156113416040518060600160405280602281526020016129e76022913983611eea565b9061135f5760405162461bcd60e51b815260040161061c9190612789565b50600b546001600160a01b031633146113cd5760405162461bcd60e51b815260206004820152602a60248201527f4f6e6c79204c65676974696d697a652063616e20706572666f726d20746869736044820152691037b832b930ba34b7b760b11b606482015260840161061c565b600d886040516113dd91906125ca565b908152604051908190036020908101822080546001810182556000918252919020018890558690600e90611412908b906125ca565b9081526020016040518091039020908051906020019061143392919061213c565b506000600d8960405161144691906125ca565b9081526040519081900360200181205491507fafb1a1f56e9e7ff906c5b3aea9540af0f79f6d6e9ea643406d3b563cc47985d99061148b9033908c908c90869061269a565b60405180910390a15095979650505050505050565b60606114ab8261181f565b6115115760405162461bcd60e51b815260206004820152603160248201527f45524337323155524953746f726167653a2055524920717565727920666f72206044820152703737b732bc34b9ba32b73a103a37b5b2b760791b606482015260840161061c565b6000828152600660205260408120805461152a9061290b565b80601f01602080910402602001604051908101604052809291908181526020018280546115569061290b565b80156115a35780601f10611578576101008083540402835291602001916115a3565b820191906000526020600020905b81548152906001019060200180831161158657829003601f168201915b5050505050905060006115c160408051602081019091526000815290565b90508051600014156115d4575092915050565b8151156116065780826040516020016115ee9291906125e6565b60405160208183030381529060405292505050919050565b61160f84611f16565b949350505050565b6000826000600d8260405161162c91906125ca565b908152604080519182900360209081018320805480830285018301909352828452919083018282801561167e57602002820191906000526020600020905b81548152602001906001019080831161166a575b505050505090506000815190506000611698600954611dec565b90506009548211156116c26040518060600160405280602281526020016129e76022913983611eea565b906116e05760405162461bcd60e51b815260040161061c9190612789565b506000868152600c60205260409020600301546001600160a01b031633146117625760405162461bcd60e51b815260206004820152602f60248201527f4f6e6c79207369676e6174757265206f776e65722063616e20706572666f726d60448201526e103a3434b99037b832b930ba34b7b760891b606482015260840161061c565b600d8760405161177291906125ca565b9081526040516020918190038201812080546001810182556000918252928120909201889055600d906117a6908a906125ca565b9081526040519081900360200181205491507fafb1a1f56e9e7ff906c5b3aea9540af0f79f6d6e9ea643406d3b563cc47985d9906117eb9033908b908b90869061269a565b60405180910390a150949695505050505050565b60606040518060a00160405280607c8152602001612a09607c9139905090565b6000908152600260205260409020546001600160a01b0316151590565b600081815260046020526040902080546001600160a01b0319166001600160a01b038416908117909155819061187182610cc7565b6001600160a01b03167f8c5be1e5ebec7d5bd14f71427d1e84f3dd0314c0f7b2291e5b200ac8c7c3b92560405160405180910390a45050565b60006118b58261181f565b6119165760405162461bcd60e51b815260206004820152602c60248201527f4552433732313a206f70657261746f7220717565727920666f72206e6f6e657860448201526b34b9ba32b73a103a37b5b2b760a11b606482015260840161061c565b600061192183610cc7565b9050806001600160a01b0316846001600160a01b0316148061195c5750836001600160a01b0316611951846105b4565b6001600160a01b0316145b8061160f57506001600160a01b0380821660009081526005602090815260408083209388168352929052205460ff1661160f565b826001600160a01b03166119a382610cc7565b6001600160a01b031614611a075760405162461bcd60e51b815260206004820152602560248201527f4552433732313a207472616e736665722066726f6d20696e636f72726563742060448201526437bbb732b960d91b606482015260840161061c565b6001600160a01b038216611a695760405162461bcd60e51b8152602060048201526024808201527f4552433732313a207472616e7366657220746f20746865207a65726f206164646044820152637265737360e01b606482015260840161061c565b611a7460008261183c565b6001600160a01b0383166000908152600360205260408120805460019290611a9d9084906128c8565b90915550506001600160a01b0382166000908152600360205260408120805460019290611acb90849061289c565b909155505060008181526002602052604080822080546001600160a01b0319166001600160a01b0386811691821790925591518493918716917fddf252ad1be2c89b69c2b068fc378daa952ba7f163c4a11628f55a4df523b3ef91a4505050565b6001600160a01b038216611b825760405162461bcd60e51b815260206004820181905260248201527f4552433732313a206d696e7420746f20746865207a65726f2061646472657373604482015260640161061c565b611b8b8161181f565b15611bd85760405162461bcd60e51b815260206004820152601c60248201527f4552433732313a20746f6b656e20616c7265616479206d696e74656400000000604482015260640161061c565b6001600160a01b0382166000908152600360205260408120805460019290611c0190849061289c565b909155505060008181526002602052604080822080546001600160a01b0319166001600160a01b03861690811790915590518392907fddf252ad1be2c89b69c2b068fc378daa952ba7f163c4a11628f55a4df523b3ef908290a45050565b611c688261181f565b611ccb5760405162461bcd60e51b815260206004820152602e60248201527f45524337323155524953746f726167653a2055524920736574206f66206e6f6e60448201526d32bc34b9ba32b73a103a37b5b2b760911b606482015260840161061c565b600082815260066020908152604090912082516107529284019061213c565b816001600160a01b0316836001600160a01b03161415611d4c5760405162461bcd60e51b815260206004820152601960248201527f4552433732313a20617070726f766520746f2063616c6c657200000000000000604482015260640161061c565b6001600160a01b03838116600081815260056020908152604080832094871680845294825291829020805460ff191686151590811790915591519182527f17307eab39ab6107e8899845ad3d59bd9653f200f220920489ca2b5937696c31910160405180910390a3505050565b611dc4848484611990565b611dd084848484611fee565b6112905760405162461bcd60e51b815260040161061c9061279c565b606081611e105750506040805180820190915260018152600360fc1b602082015290565b8160005b8115611e3a5780611e2481612946565b9150611e339050600a836128b4565b9150611e14565b60008167ffffffffffffffff811115611e5557611e556129b7565b6040519080825280601f01601f191660200182016040528015611e7f576020820181803683370190505b5090505b841561160f57611e946001836128c8565b9150611ea1600a86612961565b611eac90603061289c565b60f81b818381518110611ec157611ec16129a1565b60200101906001600160f81b031916908160001a905350611ee3600a866128b4565b9450611e83565b60608282604051602001611eff9291906125e6565b604051602081830303815290604052905092915050565b6060611f218261181f565b611f855760405162461bcd60e51b815260206004820152602f60248201527f4552433732314d657461646174613a2055524920717565727920666f72206e6f60448201526e3732bc34b9ba32b73a103a37b5b2b760891b606482015260840161061c565b6000611f9c60408051602081019091526000815290565b90506000815111611fbc5760405180602001604052806000815250611fe7565b80611fc684611dec565b604051602001611fd79291906125e6565b6040516020818303038152906040525b9392505050565b60006001600160a01b0384163b156120f057604051630a85bd0160e11b81526001600160a01b0385169063150b7a0290612032903390899088908890600401612615565b602060405180830381600087803b15801561204c57600080fd5b505af192505050801561207c575060408051601f3d908101601f1916820190925261207991810190612410565b60015b6120d6573d8080156120aa576040519150601f19603f3d011682016040523d82523d6000602084013e6120af565b606091505b5080516120ce5760405162461bcd60e51b815260040161061c9061279c565b805181602001fd5b6001600160e01b031916630a85bd0160e11b14905061160f565b506001949350505050565b6040518060a001604052806000815260200160006001600160a01b031681526020016060815260200160006001600160a01b03168152602001606081525090565b8280546121489061290b565b90600052602060002090601f01602090048101928261216a57600085556121b0565b82601f1061218357805160ff19168380011785556121b0565b828001600101855582156121b0579182015b828111156121b0578251825591602001919060010190612195565b506121bc9291506121c0565b5090565b5b808211156121bc57600081556001016121c1565b600067ffffffffffffffff808411156121f0576121f06129b7565b604051601f8501601f19908116603f01168101908282118183101715612218576122186129b7565b8160405280935085815286868601111561223157600080fd5b858560208301376000602087830101525050509392505050565b80356001600160a01b038116811461226257600080fd5b919050565b600082601f83011261227857600080fd5b611fe7838335602085016121d5565b60006020828403121561229957600080fd5b611fe78261224b565b600080604083850312156122b557600080fd5b6122be8361224b565b91506122cc6020840161224b565b90509250929050565b6000806000606084860312156122ea57600080fd5b6122f38461224b565b92506123016020850161224b565b9150604084013590509250925092565b6000806000806080858703121561232757600080fd5b6123308561224b565b935061233e6020860161224b565b925060408501359150606085013567ffffffffffffffff81111561236157600080fd5b8501601f8101871361237257600080fd5b612381878235602084016121d5565b91505092959194509250565b600080604083850312156123a057600080fd5b6123a98361224b565b9150602083013580151581146123be57600080fd5b809150509250929050565b600080604083850312156123dc57600080fd5b6123e58361224b565b946020939093013593505050565b60006020828403121561240557600080fd5b8135611fe7816129cd565b60006020828403121561242257600080fd5b8151611fe7816129cd565b60006020828403121561243f57600080fd5b813567ffffffffffffffff81111561245657600080fd5b61160f84828501612267565b60008060006060848603121561247757600080fd5b833567ffffffffffffffff8082111561248f57600080fd5b61249b87838801612267565b945060208601359150808211156124b157600080fd5b6124bd87838801612267565b935060408601359150808211156124d357600080fd5b506124e086828701612267565b9150509250925092565b600080604083850312156124fd57600080fd5b823567ffffffffffffffff81111561251457600080fd5b61252085828601612267565b95602094909401359450505050565b60008060006060848603121561254457600080fd5b833567ffffffffffffffff8082111561255c57600080fd5b61256887838801612267565b94506020860135935060408601359150808211156124d357600080fd5b60006020828403121561259757600080fd5b5035919050565b600081518084526125b68160208601602086016128df565b601f01601f19169290920160200192915050565b600082516125dc8184602087016128df565b9190910192915050565b600083516125f88184602088016128df565b83519083019061260c8183602088016128df565b01949350505050565b6001600160a01b03858116825284166020820152604081018390526080606082018190526000906126489083018461259e565b9695505050505050565b600060018060a01b03808716835260806020840152612674608084018761259e565b8186166040850152838103606085015261268e818661259e565b98975050505050505050565b6001600160a01b03851681526080602082018190526000906126be9083018661259e565b6040830194909452506060015292915050565b60006020808301818452808551808352604092508286019150828160051b87010184880160005b8381101561277b57888303603f19018552815180518452878101516001600160a01b03908116898601528782015160a08987018190529161273b8388018361259e565b92506060915080828501511682880152505060808083015192508582038187015250612767818361259e565b9689019694505050908601906001016126f8565b509098975050505050505050565b602081526000611fe7602083018461259e565b60208082526032908201527f4552433732313a207472616e7366657220746f206e6f6e20455243373231526560408201527131b2b4bb32b91034b6b83632b6b2b73a32b960711b606082015260800190565b60208082526031908201527f4552433732313a207472616e736665722063616c6c6572206973206e6f74206f6040820152701ddb995c881b9bdc88185c1c1c9bdd9959607a1b606082015260800190565b6020808252603c908201527f4f6e6c792074686520636f6e7472616374206f776e657220284c65676974696d60408201527f697a65292063616e2063616c6c20746869732066756e6374696f6e2e00000000606082015260800190565b600082198211156128af576128af612975565b500190565b6000826128c3576128c361298b565b500490565b6000828210156128da576128da612975565b500390565b60005b838110156128fa5781810151838201526020016128e2565b838111156112905750506000910152565b600181811c9082168061291f57607f821691505b6020821081141561294057634e487b7160e01b600052602260045260246000fd5b50919050565b600060001982141561295a5761295a612975565b5060010190565b6000826129705761297061298b565b500690565b634e487b7160e01b600052601160045260246000fd5b634e487b7160e01b600052601260045260246000fd5b634e487b7160e01b600052603260045260246000fd5b634e487b7160e01b600052604160045260246000fd5b6001600160e01b0319811681146129e357600080fd5b5056fe4d6178206e756d626572206f66207369676e61747572657320726561636865643a2068747470733a2f2f6c65676974696d697a652e6d7970696e6174612e636c6f75642f697066732f516d5833387171704e67705638367a7131473769437347356b346f7569756e3353616e65594d7136444b417863592f4f70656e536561436f6c6c656374696f6e2d4c656769745369676e6174757265732e6a736f6ea2646970667358221220f0e3263fa3c55012ecfa80b86e7b483bda987c52db1da6706b1cfdabc610207564736f6c63430008070033",
  "linkReferences": {},
  "deployedLinkReferences": {}
}